{
  "_format": "hh-sol-artifact-1",
  "contractName": "VietnameseDong",
  "sourceName": "contracts/payment/VietnameseDong.sol",
  "abi": [
    {
      "inputs": [
        {
          "internalType": "contract IControlCenter",
          "name": "_controlCenter",
          "type": "address"
        }
      ],
      "stateMutability": "nonpayable",
      "type": "constructor"
    },
    {
      "anonymous": false,
      "inputs": [
        {
          "indexed": true,
          "internalType": "address",
          "name": "owner",
          "type": "address"
        },
        {
          "indexed": true,
          "internalType": "address",
          "name": "spender",
          "type": "address"
        },
        {
          "indexed": false,
          "internalType": "uint256",
          "name": "value",
          "type": "uint256"
        }
      ],
      "name": "Approval",
      "type": "event"
    },
    {
      "anonymous": false,
      "inputs": [
        {
          "indexed": false,
          "internalType": "address",
          "name": "account",
          "type": "address"
        }
      ],
      "name": "Paused",
      "type": "event"
    },
    {
      "anonymous": false,
      "inputs": [
        {
          "indexed": true,
          "internalType": "address",
          "name": "from",
          "type": "address"
        },
        {
          "indexed": true,
          "internalType": "address",
          "name": "to",
          "type": "address"
        },
        {
          "indexed": false,
          "internalType": "uint256",
          "name": "value",
          "type": "uint256"
        }
      ],
      "name": "Transfer",
      "type": "event"
    },
    {
      "anonymous": false,
      "inputs": [
        {
          "indexed": false,
          "internalType": "address",
          "name": "account",
          "type": "address"
        }
      ],
      "name": "Unpaused",
      "type": "event"
    },
    {
      "inputs": [
        {
          "internalType": "address",
          "name": "owner",
          "type": "address"
        },
        {
          "internalType": "address",
          "name": "spender",
          "type": "address"
        }
      ],
      "name": "allowance",
      "outputs": [
        {
          "internalType": "uint256",
          "name": "",
          "type": "uint256"
        }
      ],
      "stateMutability": "view",
      "type": "function"
    },
    {
      "inputs": [
        {
          "internalType": "address",
          "name": "spender",
          "type": "address"
        },
        {
          "internalType": "uint256",
          "name": "amount",
          "type": "uint256"
        }
      ],
      "name": "approve",
      "outputs": [
        {
          "internalType": "bool",
          "name": "",
          "type": "bool"
        }
      ],
      "stateMutability": "nonpayable",
      "type": "function"
    },
    {
      "inputs": [
        {
          "internalType": "address",
          "name": "account",
          "type": "address"
        }
      ],
      "name": "balanceOf",
      "outputs": [
        {
          "internalType": "uint256",
          "name": "",
          "type": "uint256"
        }
      ],
      "stateMutability": "view",
      "type": "function"
    },
    {
      "inputs": [
        {
          "internalType": "address",
          "name": "account",
          "type": "address"
        },
        {
          "internalType": "uint256",
          "name": "amount",
          "type": "uint256"
        }
      ],
      "name": "burn",
      "outputs": [],
      "stateMutability": "nonpayable",
      "type": "function"
    },
    {
      "inputs": [],
      "name": "controlCenter",
      "outputs": [
        {
          "internalType": "contract IControlCenter",
          "name": "",
          "type": "address"
        }
      ],
      "stateMutability": "view",
      "type": "function"
    },
    {
      "inputs": [],
      "name": "decimals",
      "outputs": [
        {
          "internalType": "uint8",
          "name": "",
          "type": "uint8"
        }
      ],
      "stateMutability": "view",
      "type": "function"
    },
    {
      "inputs": [
        {
          "internalType": "address",
          "name": "spender",
          "type": "address"
        },
        {
          "internalType": "uint256",
          "name": "subtractedValue",
          "type": "uint256"
        }
      ],
      "name": "decreaseAllowance",
      "outputs": [
        {
          "internalType": "bool",
          "name": "",
          "type": "bool"
        }
      ],
      "stateMutability": "nonpayable",
      "type": "function"
    },
    {
      "inputs": [
        {
          "internalType": "address",
          "name": "spender",
          "type": "address"
        },
        {
          "internalType": "uint256",
          "name": "addedValue",
          "type": "uint256"
        }
      ],
      "name": "increaseAllowance",
      "outputs": [
        {
          "internalType": "bool",
          "name": "",
          "type": "bool"
        }
      ],
      "stateMutability": "nonpayable",
      "type": "function"
    },
    {
      "inputs": [
        {
          "internalType": "address",
          "name": "account",
          "type": "address"
        },
        {
          "internalType": "uint256",
          "name": "amount",
          "type": "uint256"
        }
      ],
      "name": "mint",
      "outputs": [],
      "stateMutability": "nonpayable",
      "type": "function"
    },
    {
      "inputs": [],
      "name": "name",
      "outputs": [
        {
          "internalType": "string",
          "name": "",
          "type": "string"
        }
      ],
      "stateMutability": "view",
      "type": "function"
    },
    {
      "inputs": [],
      "name": "pause",
      "outputs": [],
      "stateMutability": "nonpayable",
      "type": "function"
    },
    {
      "inputs": [],
      "name": "paused",
      "outputs": [
        {
          "internalType": "bool",
          "name": "",
          "type": "bool"
        }
      ],
      "stateMutability": "view",
      "type": "function"
    },
    {
      "inputs": [],
      "name": "symbol",
      "outputs": [
        {
          "internalType": "string",
          "name": "",
          "type": "string"
        }
      ],
      "stateMutability": "view",
      "type": "function"
    },
    {
      "inputs": [],
      "name": "totalSupply",
      "outputs": [
        {
          "internalType": "uint256",
          "name": "",
          "type": "uint256"
        }
      ],
      "stateMutability": "view",
      "type": "function"
    },
    {
      "inputs": [
        {
          "internalType": "address",
          "name": "to",
          "type": "address"
        },
        {
          "internalType": "uint256",
          "name": "amount",
          "type": "uint256"
        }
      ],
      "name": "transfer",
      "outputs": [
        {
          "internalType": "bool",
          "name": "",
          "type": "bool"
        }
      ],
      "stateMutability": "nonpayable",
      "type": "function"
    },
    {
      "inputs": [
        {
          "internalType": "address",
          "name": "from",
          "type": "address"
        },
        {
          "internalType": "address",
          "name": "to",
          "type": "address"
        },
        {
          "internalType": "uint256",
          "name": "amount",
          "type": "uint256"
        }
      ],
      "name": "transferFrom",
      "outputs": [
        {
          "internalType": "bool",
          "name": "",
          "type": "bool"
        }
      ],
      "stateMutability": "nonpayable",
      "type": "function"
    },
    {
      "inputs": [],
      "name": "unpause",
      "outputs": [],
      "stateMutability": "nonpayable",
      "type": "function"
    }
  ],
  "bytecode": "0x60a06040523480156200001157600080fd5b50604051620011cf380380620011cf83398101604081905262000034916200016b565b6040518060400160405280600f81526020016e566965746e616d65736520446f6e6760881b8152506040518060400160405280600381526020016215939160ea1b815250816003908051906020019062000090929190620000c5565b508051620000a6906004906020840190620000c5565b50506005805460ff19169055506001600160a01b0316608052620001d9565b828054620000d3906200019d565b90600052602060002090601f016020900481019282620000f7576000855562000142565b82601f106200011257805160ff191683800117855562000142565b8280016001018555821562000142579182015b828111156200014257825182559160200191906001019062000125565b506200015092915062000154565b5090565b5b8082111562000150576000815560010162000155565b6000602082840312156200017e57600080fd5b81516001600160a01b03811681146200019657600080fd5b9392505050565b600181811c90821680620001b257607f821691505b602082108103620001d357634e487b7160e01b600052602260045260246000fd5b50919050565b608051610fb06200021f6000396000818161024a0152818161037e0152818161040f015281816104a40152818161054201528181610c870152610cfe0152610fb06000f3fe608060405234801561001057600080fd5b506004361061010b5760003560e01c80635c975abb116100a25780639dc29fac116100715780639dc29fac146101f9578063a457c2d71461020c578063a9059cbb1461021f578063dd62ed3e14610232578063fee1f7751461024557600080fd5b80635c975abb146101b557806370a08231146101c05780638456cb59146101e957806395d89b41146101f157600080fd5b8063313ce567116100de578063313ce5671461017657806339509351146101855780633f4ba83a1461019857806340c10f19146101a257600080fd5b806306fdde0314610110578063095ea7b31461012e57806318160ddd1461015157806323b872dd14610163575b600080fd5b610118610284565b6040516101259190610dee565b60405180910390f35b61014161013c366004610e5f565b610316565b6040519015158152602001610125565b6002545b604051908152602001610125565b610141610171366004610e89565b61032e565b60405160128152602001610125565b610141610193366004610e5f565b610352565b6101a0610374565b005b6101a06101b0366004610e5f565b610405565b60055460ff16610141565b6101556101ce366004610ec5565b6001600160a01b031660009081526020819052604090205490565b6101a061049a565b610118610529565b6101a0610207366004610e5f565b610538565b61014161021a366004610e5f565b6105c9565b61014161022d366004610e5f565b610649565b610155610240366004610ee7565b610657565b61026c7f000000000000000000000000000000000000000000000000000000000000000081565b6040516001600160a01b039091168152602001610125565b60606003805461029390610f1a565b80601f01602080910402602001604051908101604052809291908181526020018280546102bf90610f1a565b801561030c5780601f106102e15761010080835404028352916020019161030c565b820191906000526020600020905b8154815290600101906020018083116102ef57829003601f168201915b5050505050905090565b600033610324818585610682565b5060019392505050565b60003361033c8582856107a7565b610347858585610821565b506001949350505050565b6000336103248185856103658383610657565b61036f9190610f54565b610682565b6001600160a01b037f0000000000000000000000000000000000000000000000000000000000000000166313aeefdc336040516001600160e01b031960e084901b1681526001600160a01b03909116600482015260240160006040518083038186803b1580156103e357600080fd5b505afa1580156103f7573d6000803e3d6000fd5b505050506104036109d0565b565b6001600160a01b037f000000000000000000000000000000000000000000000000000000000000000016635139caa7336040516001600160e01b031960e084901b1681526001600160a01b03909116600482015260240160006040518083038186803b15801561047457600080fd5b505afa158015610488573d6000803e3d6000fd5b505050506104968282610a22565b5050565b6001600160a01b037f0000000000000000000000000000000000000000000000000000000000000000166313aeefdc336040516001600160e01b031960e084901b1681526001600160a01b03909116600482015260240160006040518083038186803b15801561050957600080fd5b505afa15801561051d573d6000803e3d6000fd5b50505050610403610aed565b60606004805461029390610f1a565b6001600160a01b037f000000000000000000000000000000000000000000000000000000000000000016635139caa7336040516001600160e01b031960e084901b1681526001600160a01b03909116600482015260240160006040518083038186803b1580156105a757600080fd5b505afa1580156105bb573d6000803e3d6000fd5b505050506104968282610b2a565b600033816105d78286610657565b90508381101561063c5760405162461bcd60e51b815260206004820152602560248201527f45524332303a2064656372656173656420616c6c6f77616e63652062656c6f77604482015264207a65726f60d81b60648201526084015b60405180910390fd5b6103478286868403610682565b600033610324818585610821565b6001600160a01b03918216600090815260016020908152604080832093909416825291909152205490565b6001600160a01b0383166106e45760405162461bcd60e51b8152602060048201526024808201527f45524332303a20617070726f76652066726f6d20746865207a65726f206164646044820152637265737360e01b6064820152608401610633565b6001600160a01b0382166107455760405162461bcd60e51b815260206004820152602260248201527f45524332303a20617070726f766520746f20746865207a65726f206164647265604482015261737360f01b6064820152608401610633565b6001600160a01b0383811660008181526001602090815260408083209487168084529482529182902085905590518481527f8c5be1e5ebec7d5bd14f71427d1e84f3dd0314c0f7b2291e5b200ac8c7c3b92591015b60405180910390a3505050565b60006107b38484610657565b9050600019811461081b578181101561080e5760405162461bcd60e51b815260206004820152601d60248201527f45524332303a20696e73756666696369656e7420616c6c6f77616e63650000006044820152606401610633565b61081b8484848403610682565b50505050565b6001600160a01b0383166108855760405162461bcd60e51b815260206004820152602560248201527f45524332303a207472616e736665722066726f6d20746865207a65726f206164604482015264647265737360d81b6064820152608401610633565b6001600160a01b0382166108e75760405162461bcd60e51b815260206004820152602360248201527f45524332303a207472616e7366657220746f20746865207a65726f206164647260448201526265737360e81b6064820152608401610633565b6108f2838383610c60565b6001600160a01b0383166000908152602081905260409020548181101561096a5760405162461bcd60e51b815260206004820152602660248201527f45524332303a207472616e7366657220616d6f756e7420657863656564732062604482015265616c616e636560d01b6064820152608401610633565b6001600160a01b03848116600081815260208181526040808320878703905593871680835291849020805487019055925185815290927fddf252ad1be2c89b69c2b068fc378daa952ba7f163c4a11628f55a4df523b3ef910160405180910390a361081b565b6109d8610d5f565b6005805460ff191690557f5db9ee0a495bf2e6ff9c91a7834c1ba4fdd244a5e8aa4e537bd38aeae4b073aa335b6040516001600160a01b03909116815260200160405180910390a1565b6001600160a01b038216610a785760405162461bcd60e51b815260206004820152601f60248201527f45524332303a206d696e7420746f20746865207a65726f2061646472657373006044820152606401610633565b610a8460008383610c60565b8060026000828254610a969190610f54565b90915550506001600160a01b038216600081815260208181526040808320805486019055518481527fddf252ad1be2c89b69c2b068fc378daa952ba7f163c4a11628f55a4df523b3ef910160405180910390a35050565b610af5610da8565b6005805460ff191660011790557f62e78cea01bee320cd4e420270b5ea74000d11b0c9f74754ebdbfc544b05a258610a053390565b6001600160a01b038216610b8a5760405162461bcd60e51b815260206004820152602160248201527f45524332303a206275726e2066726f6d20746865207a65726f206164647265736044820152607360f81b6064820152608401610633565b610b9682600083610c60565b6001600160a01b03821660009081526020819052604090205481811015610c0a5760405162461bcd60e51b815260206004820152602260248201527f45524332303a206275726e20616d6f756e7420657863656564732062616c616e604482015261636560f01b6064820152608401610633565b6001600160a01b0383166000818152602081815260408083208686039055600280548790039055518581529192917fddf252ad1be2c89b69c2b068fc378daa952ba7f163c4a11628f55a4df523b3ef910161079a565b610c68610da8565b60405163197b138560e31b81526001600160a01b0384811660048301527f0000000000000000000000000000000000000000000000000000000000000000169063cbd89c289060240160006040518083038186803b158015610cc957600080fd5b505afa158015610cdd573d6000803e3d6000fd5b50506040516338ce960760e21b81526001600160a01b0385811660048301527f000000000000000000000000000000000000000000000000000000000000000016925063e33a581c915060240160006040518083038186803b158015610d4257600080fd5b505afa158015610d56573d6000803e3d6000fd5b50505050505050565b60055460ff166104035760405162461bcd60e51b815260206004820152601460248201527314185d5cd8589b194e881b9bdd081c185d5cd95960621b6044820152606401610633565b60055460ff16156104035760405162461bcd60e51b815260206004820152601060248201526f14185d5cd8589b194e881c185d5cd95960821b6044820152606401610633565b600060208083528351808285015260005b81811015610e1b57858101830151858201604001528201610dff565b81811115610e2d576000604083870101525b50601f01601f1916929092016040019392505050565b80356001600160a01b0381168114610e5a57600080fd5b919050565b60008060408385031215610e7257600080fd5b610e7b83610e43565b946020939093013593505050565b600080600060608486031215610e9e57600080fd5b610ea784610e43565b9250610eb560208501610e43565b9150604084013590509250925092565b600060208284031215610ed757600080fd5b610ee082610e43565b9392505050565b60008060408385031215610efa57600080fd5b610f0383610e43565b9150610f1160208401610e43565b90509250929050565b600181811c90821680610f2e57607f821691505b602082108103610f4e57634e487b7160e01b600052602260045260246000fd5b50919050565b60008219821115610f7557634e487b7160e01b600052601160045260246000fd5b50019056fea26469706673582212200a53db4b0793168c1b3868f72840e60b06425c9ab35ee162e4c6a7ba137f4d8964736f6c634300080d0033",
  "linkReferences": {},
  "deployedLinkReferences": {}
}