{
  "_format": "hh-sol-artifact-1",
  "contractName": "ControlCenter",
  "sourceName": "contracts/access/ControlCenter.sol",
  "abi": [
    {
      "inputs": [],
      "stateMutability": "nonpayable",
      "type": "constructor"
    },
    {
      "anonymous": false,
      "inputs": [
        {
          "indexed": false,
          "internalType": "address[]",
          "name": "accounts",
          "type": "address[]"
        }
      ],
      "name": "AddMultiToBlacklist",
      "type": "event"
    },
    {
      "anonymous": false,
      "inputs": [
        {
          "indexed": false,
          "internalType": "address[]",
          "name": "accounts",
          "type": "address[]"
        }
      ],
      "name": "AddMultiToWhitelist",
      "type": "event"
    },
    {
      "anonymous": false,
      "inputs": [
        {
          "indexed": true,
          "internalType": "address",
          "name": "account",
          "type": "address"
        }
      ],
      "name": "AddToBlacklist",
      "type": "event"
    },
    {
      "anonymous": false,
      "inputs": [
        {
          "indexed": true,
          "internalType": "address",
          "name": "account",
          "type": "address"
        }
      ],
      "name": "AddToWhitelist",
      "type": "event"
    },
    {
      "anonymous": false,
      "inputs": [
        {
          "indexed": true,
          "internalType": "address",
          "name": "account",
          "type": "address"
        }
      ],
      "name": "RemoveFromBlacklist",
      "type": "event"
    },
    {
      "anonymous": false,
      "inputs": [
        {
          "indexed": true,
          "internalType": "address",
          "name": "account",
          "type": "address"
        }
      ],
      "name": "RemoveFromWhitelist",
      "type": "event"
    },
    {
      "anonymous": false,
      "inputs": [
        {
          "indexed": false,
          "internalType": "address[]",
          "name": "accounts",
          "type": "address[]"
        }
      ],
      "name": "RemoveMultiFromBlacklist",
      "type": "event"
    },
    {
      "anonymous": false,
      "inputs": [
        {
          "indexed": false,
          "internalType": "address[]",
          "name": "accounts",
          "type": "address[]"
        }
      ],
      "name": "RemoveMultiFromWhitelist",
      "type": "event"
    },
    {
      "anonymous": false,
      "inputs": [
        {
          "indexed": true,
          "internalType": "bytes32",
          "name": "role",
          "type": "bytes32"
        },
        {
          "indexed": true,
          "internalType": "bytes32",
          "name": "previousAdminRole",
          "type": "bytes32"
        },
        {
          "indexed": true,
          "internalType": "bytes32",
          "name": "newAdminRole",
          "type": "bytes32"
        }
      ],
      "name": "RoleAdminChanged",
      "type": "event"
    },
    {
      "anonymous": false,
      "inputs": [
        {
          "indexed": true,
          "internalType": "bytes32",
          "name": "role",
          "type": "bytes32"
        },
        {
          "indexed": true,
          "internalType": "address",
          "name": "account",
          "type": "address"
        },
        {
          "indexed": true,
          "internalType": "address",
          "name": "sender",
          "type": "address"
        }
      ],
      "name": "RoleGranted",
      "type": "event"
    },
    {
      "anonymous": false,
      "inputs": [
        {
          "indexed": true,
          "internalType": "bytes32",
          "name": "role",
          "type": "bytes32"
        },
        {
          "indexed": true,
          "internalType": "address",
          "name": "account",
          "type": "address"
        },
        {
          "indexed": true,
          "internalType": "address",
          "name": "sender",
          "type": "address"
        }
      ],
      "name": "RoleRevoked",
      "type": "event"
    },
    {
      "inputs": [],
      "name": "DEFAULT_ADMIN_ROLE",
      "outputs": [
        {
          "internalType": "bytes32",
          "name": "",
          "type": "bytes32"
        }
      ],
      "stateMutability": "view",
      "type": "function"
    },
    {
      "inputs": [],
      "name": "MODERATOR_ROLE",
      "outputs": [
        {
          "internalType": "bytes32",
          "name": "",
          "type": "bytes32"
        }
      ],
      "stateMutability": "view",
      "type": "function"
    },
    {
      "inputs": [],
      "name": "OPERATOR_ROLE",
      "outputs": [
        {
          "internalType": "bytes32",
          "name": "",
          "type": "bytes32"
        }
      ],
      "stateMutability": "view",
      "type": "function"
    },
    {
      "inputs": [],
      "name": "TREASURER_ROLE",
      "outputs": [
        {
          "internalType": "bytes32",
          "name": "",
          "type": "bytes32"
        }
      ],
      "stateMutability": "view",
      "type": "function"
    },
    {
      "inputs": [
        {
          "internalType": "address[]",
          "name": "accounts",
          "type": "address[]"
        }
      ],
      "name": "addMultiToBlacklist",
      "outputs": [],
      "stateMutability": "nonpayable",
      "type": "function"
    },
    {
      "inputs": [
        {
          "internalType": "address[]",
          "name": "accounts",
          "type": "address[]"
        }
      ],
      "name": "addMultiToWhitelist",
      "outputs": [],
      "stateMutability": "nonpayable",
      "type": "function"
    },
    {
      "inputs": [
        {
          "internalType": "address",
          "name": "account",
          "type": "address"
        }
      ],
      "name": "addToBlacklist",
      "outputs": [],
      "stateMutability": "nonpayable",
      "type": "function"
    },
    {
      "inputs": [
        {
          "internalType": "address",
          "name": "account",
          "type": "address"
        }
      ],
      "name": "addToWhitelist",
      "outputs": [],
      "stateMutability": "nonpayable",
      "type": "function"
    },
    {
      "inputs": [
        {
          "internalType": "address",
          "name": "",
          "type": "address"
        }
      ],
      "name": "blacklisting",
      "outputs": [
        {
          "internalType": "bool",
          "name": "",
          "type": "bool"
        }
      ],
      "stateMutability": "view",
      "type": "function"
    },
    {
      "inputs": [
        {
          "internalType": "bytes32",
          "name": "role",
          "type": "bytes32"
        }
      ],
      "name": "getRoleAdmin",
      "outputs": [
        {
          "internalType": "bytes32",
          "name": "",
          "type": "bytes32"
        }
      ],
      "stateMutability": "view",
      "type": "function"
    },
    {
      "inputs": [
        {
          "internalType": "bytes32",
          "name": "role",
          "type": "bytes32"
        },
        {
          "internalType": "address",
          "name": "account",
          "type": "address"
        }
      ],
      "name": "grantRole",
      "outputs": [],
      "stateMutability": "nonpayable",
      "type": "function"
    },
    {
      "inputs": [
        {
          "internalType": "bytes32",
          "name": "role",
          "type": "bytes32"
        },
        {
          "internalType": "address",
          "name": "account",
          "type": "address"
        }
      ],
      "name": "hasRole",
      "outputs": [
        {
          "internalType": "bool",
          "name": "",
          "type": "bool"
        }
      ],
      "stateMutability": "view",
      "type": "function"
    },
    {
      "inputs": [
        {
          "internalType": "address",
          "name": "account",
          "type": "address"
        }
      ],
      "name": "notInBlacklisted",
      "outputs": [],
      "stateMutability": "view",
      "type": "function"
    },
    {
      "inputs": [
        {
          "internalType": "address",
          "name": "account",
          "type": "address"
        }
      ],
      "name": "onlyModerator",
      "outputs": [],
      "stateMutability": "view",
      "type": "function"
    },
    {
      "inputs": [
        {
          "internalType": "address",
          "name": "account",
          "type": "address"
        }
      ],
      "name": "onlyOperator",
      "outputs": [],
      "stateMutability": "view",
      "type": "function"
    },
    {
      "inputs": [
        {
          "internalType": "address",
          "name": "account",
          "type": "address"
        }
      ],
      "name": "onlyTreasurer",
      "outputs": [],
      "stateMutability": "view",
      "type": "function"
    },
    {
      "inputs": [
        {
          "internalType": "address",
          "name": "account",
          "type": "address"
        }
      ],
      "name": "onlyWhitelisted",
      "outputs": [],
      "stateMutability": "view",
      "type": "function"
    },
    {
      "inputs": [
        {
          "internalType": "address",
          "name": "account",
          "type": "address"
        }
      ],
      "name": "removeFromBlacklist",
      "outputs": [],
      "stateMutability": "nonpayable",
      "type": "function"
    },
    {
      "inputs": [
        {
          "internalType": "address",
          "name": "account",
          "type": "address"
        }
      ],
      "name": "removeFromWhitelist",
      "outputs": [],
      "stateMutability": "nonpayable",
      "type": "function"
    },
    {
      "inputs": [
        {
          "internalType": "address[]",
          "name": "accounts",
          "type": "address[]"
        }
      ],
      "name": "removeMultiFromBlacklist",
      "outputs": [],
      "stateMutability": "nonpayable",
      "type": "function"
    },
    {
      "inputs": [
        {
          "internalType": "address[]",
          "name": "accounts",
          "type": "address[]"
        }
      ],
      "name": "removeMultiFromWhitelist",
      "outputs": [],
      "stateMutability": "nonpayable",
      "type": "function"
    },
    {
      "inputs": [
        {
          "internalType": "bytes32",
          "name": "role",
          "type": "bytes32"
        },
        {
          "internalType": "address",
          "name": "account",
          "type": "address"
        }
      ],
      "name": "renounceRole",
      "outputs": [],
      "stateMutability": "nonpayable",
      "type": "function"
    },
    {
      "inputs": [
        {
          "internalType": "bytes32",
          "name": "role",
          "type": "bytes32"
        },
        {
          "internalType": "address",
          "name": "account",
          "type": "address"
        }
      ],
      "name": "revokeRole",
      "outputs": [],
      "stateMutability": "nonpayable",
      "type": "function"
    },
    {
      "inputs": [
        {
          "internalType": "bytes32",
          "name": "role",
          "type": "bytes32"
        },
        {
          "internalType": "bytes32",
          "name": "adminRole",
          "type": "bytes32"
        }
      ],
      "name": "setRoleAdmin",
      "outputs": [],
      "stateMutability": "nonpayable",
      "type": "function"
    },
    {
      "inputs": [
        {
          "internalType": "bytes4",
          "name": "interfaceId",
          "type": "bytes4"
        }
      ],
      "name": "supportsInterface",
      "outputs": [
        {
          "internalType": "bool",
          "name": "",
          "type": "bool"
        }
      ],
      "stateMutability": "view",
      "type": "function"
    },
    {
      "inputs": [
        {
          "internalType": "address",
          "name": "",
          "type": "address"
        }
      ],
      "name": "whitelisting",
      "outputs": [
        {
          "internalType": "bool",
          "name": "",
          "type": "bool"
        }
      ],
      "stateMutability": "view",
      "type": "function"
    }
  ],
  "bytecode": "0x60806040523480156200001157600080fd5b506200001f600033620000c0565b6200004b7f97667070c54ef182b0f5858b034beac1b6f3089aa2d3188bb1e8929f4fa9b92933620000c0565b620000777f3496e2e73c4d42b75d702e60d9e48102720b8691234415963a5a857b86425d0733620000c0565b620000a37f71f3d55856e4058ed06ee057d79ada615f65cdf5f9ee88181b914225088f834f33620000c0565b620000ae33620000d0565b620000ba6000620000d0565b620001bc565b620000cc82826200011c565b5050565b6001600160a01b038116600081815260026020526040808220805460ff19166001179055517f75b2135d1c8c3519f3c09c43fe6527089ef09f40c7981ebf0ed46e79e79032c79190a250565b6000828152602081815260408083206001600160a01b038516845290915290205460ff16620000cc576000828152602081815260408083206001600160a01b03851684529091529020805460ff19166001179055620001783390565b6001600160a01b0316816001600160a01b0316837f2f8788117e7eff1d82e926ec794901d17c78024a50270940304540a733656f0d60405160405180910390a45050565b6113d980620001cc6000396000f3fe608060405234801561001057600080fd5b506004361061018e5760003560e01c806382a21aa9116100de578063c758629711610097578063e33a581c11610071578063e33a581c14610381578063e43252d714610394578063f0a3a97c146103a7578063f5b541a6146103ce57600080fd5b8063c758629714610348578063cbd89c281461035b578063d547741f1461036e57600080fd5b806382a21aa9146102c15780638a294c60146102d45780638ab1d681146102f757806391d148541461030a57806394b2ae0e1461031d578063a217fddf1461034057600080fd5b80632f2ff15d1161014b5780635139caa7116101255780635139caa714610273578063537df3b61461028657806365c9cc4914610299578063797669c9146102ac57600080fd5b80632f2ff15d1461023a57806336568abe1461024d57806344337ea11461026057600080fd5b806301ffc9a7146101935780630e088d96146101bb57806313aeefdc146101d05780631e4e0091146101e35780631ee0f15a146101f6578063248a9ca314610209575b600080fd5b6101a66101a1366004611079565b6103f5565b60405190151581526020015b60405180910390f35b6101ce6101c93660046110a3565b61042c565b005b6101ce6101de366004611134565b610453565b6101ce6101f136600461114f565b6104bf565b6101ce6102043660046110a3565b6104d4565b61022c610217366004611171565b60009081526020819052604090206001015490565b6040519081526020016101b2565b6101ce61024836600461118a565b6104f6565b6101ce61025b36600461118a565b61051b565b6101ce61026e366004611134565b610599565b6101ce610281366004611134565b6105c3565b6101ce610294366004611134565b610639565b6101ce6102a73660046110a3565b61065a565b61022c60008051602061138483398151915281565b6101ce6102cf3660046110a3565b61067c565b6101a66102e2366004611134565b60016020526000908152604090205460ff1681565b6101ce610305366004611134565b61069e565b6101a661031836600461118a565b6106bf565b6101a661032b366004611134565b60026020526000908152604090205460ff1681565b61022c600081565b6101ce610356366004611134565b6106e8565b6101ce610369366004611134565b61075e565b6101ce61037c36600461118a565b6107c0565b6101ce61038f366004611134565b6107e5565b6101ce6103a2366004611134565b61084d565b61022c7f3496e2e73c4d42b75d702e60d9e48102720b8691234415963a5a857b86425d0781565b61022c7f97667070c54ef182b0f5858b034beac1b6f3089aa2d3188bb1e8929f4fa9b92981565b60006001600160e01b03198216637965db0b60e01b148061042657506301ffc9a760e01b6001600160e01b03198316145b92915050565b6000805160206113848339815191526104448161086e565b61044e8383610878565b505050565b61046b600080516020611384833981519152826106bf565b6104bc5760405162461bcd60e51b815260206004820152601d60248201527f436f6e74726f6c43656e7465723a204d4f44455241544f525f4f4e4c5900000060448201526064015b60405180910390fd5b50565b60006104ca8161086e565b61044e8383610964565b6000805160206113848339815191526104ec8161086e565b61044e83836109af565b6000828152602081905260409020600101546105118161086e565b61044e8383610a91565b6001600160a01b038116331461058b5760405162461bcd60e51b815260206004820152602f60248201527f416363657373436f6e74726f6c3a2063616e206f6e6c792072656e6f756e636560448201526e103937b632b9903337b91039b2b63360891b60648201526084016104b3565b6105958282610b15565b5050565b6000805160206113848339815191526105b18161086e565b6105ba82610b7a565b61059582610bc3565b6105ed7f3496e2e73c4d42b75d702e60d9e48102720b8691234415963a5a857b86425d07826106bf565b6104bc5760405162461bcd60e51b815260206004820152601d60248201527f436f6e74726f6c43656e7465723a205452454153555245525f4f4e4c5900000060448201526064016104b3565b6000805160206113848339815191526106518161086e565b61059582610c12565b6000805160206113848339815191526106728161086e565b61044e8383610c5b565b6000805160206113848339815191526106948161086e565b61044e8383610d40565b6000805160206113848339815191526106b68161086e565b61059582610b7a565b6000918252602082815260408084206001600160a01b0393909316845291905290205460ff1690565b6107127f97667070c54ef182b0f5858b034beac1b6f3089aa2d3188bb1e8929f4fa9b929826106bf565b6104bc5760405162461bcd60e51b815260206004820152601c60248201527f436f6e74726f6c43656e7465723a204f50455241544f525f4f4e4c590000000060448201526064016104b3565b6001600160a01b03811660009081526001602052604090205460ff16156104bc5760405162461bcd60e51b8152602060048201526016602482015275109b1858dadb1a5cdd0e8810931050d2d31254d5115160521b60448201526064016104b3565b6000828152602081905260409020600101546107db8161086e565b61044e8383610b15565b6001600160a01b03811660009081526002602052604090205460ff166104bc5760405162461bcd60e51b815260206004820152601a60248201527f57686974656c6973743a204e4f545f57484954454c495354454400000000000060448201526064016104b3565b6000805160206113848339815191526108658161086e565b61059582610e1f565b6104bc8133610e6b565b80806108bf5760405162461bcd60e51b815260206004820152601660248201527557686974656c6973743a20454d5054595f415252415960501b60448201526064016104b3565b60005b818110156109255760008484838181106108de576108de6111b6565b90506020020160208101906108f39190611134565b6001600160a01b03166000908152600260205260409020805460ff19169055508061091d816111e2565b9150506108c2565b507fac71168a70dcfa19ac378cb13c2c558c1bf160c0d2dd0772edae7788fff6fcdd83836040516109579291906111fb565b60405180910390a1505050565b600082815260208190526040808220600101805490849055905190918391839186917fbd79b86ffe0ab8e8776151514217cd7cacd52c909f66475c3af44e129f0b00ff9190a4505050565b80806109f65760405162461bcd60e51b815260206004820152601660248201527557686974656c6973743a20454d5054595f415252415960501b60448201526064016104b3565b60005b81811015610a5f576000848483818110610a1557610a156111b6565b9050602002016020810190610a2a9190611134565b6001600160a01b03166000908152600260205260409020805460ff191660011790555080610a57816111e2565b9150506109f9565b507f0c84de5c8630a5db9c22eaa01e216cea599524a8385879c4ace630e45243339783836040516109579291906111fb565b610a9b82826106bf565b610595576000828152602081815260408083206001600160a01b03851684529091529020805460ff19166001179055610ad13390565b6001600160a01b0316816001600160a01b0316837f2f8788117e7eff1d82e926ec794901d17c78024a50270940304540a733656f0d60405160405180910390a45050565b610b1f82826106bf565b15610595576000828152602081815260408083206001600160a01b0385168085529252808320805460ff1916905551339285917ff6391f5c32d9c69d2a47ea670b442974b53935d1edc7fd64eb21e047a839171b9190a45050565b6001600160a01b038116600081815260026020526040808220805460ff19169055517f1f756c8b089af6b33ee121fee8badac2553a2fa89c0575ea91ff8792617746c29190a250565b6001600160a01b0381166000818152600160208190526040808320805460ff1916909217909155517f6b713f4f12b0a0860e4b6b54d27ef8de95da632b1250f5c12f8254fdedbc2ebd9190a250565b6001600160a01b038116600081815260016020526040808220805460ff19169055517f3afada3900b4909463d8a846fbdc12d6b5c4e8030bd6bc1215822ecee62357ba9190a250565b8080610ca25760405162461bcd60e51b8152602060048201526016602482015275426c61636b6c6973743a20454d5054595f415252415960501b60448201526064016104b3565b60005b81811015610d0e576000848483818110610cc157610cc16111b6565b9050602002016020810190610cd69190611134565b6001600160a01b03166000908152600160208190526040909120805460ff191690911790555080610d06816111e2565b915050610ca5565b507f6f3ed6453c0e83a3018f8199ef18e0ba7a8ea3d9c4743653d8ea1cbf1d56f08883836040516109579291906111fb565b8080610d875760405162461bcd60e51b8152602060048201526016602482015275426c61636b6c6973743a20454d5054595f415252415960501b60448201526064016104b3565b60005b81811015610ded576000848483818110610da657610da66111b6565b9050602002016020810190610dbb9190611134565b6001600160a01b03166000908152600160205260409020805460ff191690555080610de5816111e2565b915050610d8a565b507f013207de5aa159932536a59c8e4d0c99294a254b982092d41c6cf42170686edc83836040516109579291906111fb565b6001600160a01b038116600081815260026020526040808220805460ff19166001179055517f75b2135d1c8c3519f3c09c43fe6527089ef09f40c7981ebf0ed46e79e79032c79190a250565b610e7582826106bf565b61059557610e8281610ec4565b610e8d836020610ed6565b604051602001610e9e929190611277565b60408051601f198184030181529082905262461bcd60e51b82526104b3916004016112ec565b60606104266001600160a01b03831660145b60606000610ee583600261131f565b610ef090600261133e565b67ffffffffffffffff811115610f0857610f08611356565b6040519080825280601f01601f191660200182016040528015610f32576020820181803683370190505b509050600360fc1b81600081518110610f4d57610f4d6111b6565b60200101906001600160f81b031916908160001a905350600f60fb1b81600181518110610f7c57610f7c6111b6565b60200101906001600160f81b031916908160001a9053506000610fa084600261131f565b610fab90600161133e565b90505b6001811115611023576f181899199a1a9b1b9c1cb0b131b232b360811b85600f1660108110610fdf57610fdf6111b6565b1a60f81b828281518110610ff557610ff56111b6565b60200101906001600160f81b031916908160001a90535060049490941c9361101c8161136c565b9050610fae565b5083156110725760405162461bcd60e51b815260206004820181905260248201527f537472696e67733a20686578206c656e67746820696e73756666696369656e7460448201526064016104b3565b9392505050565b60006020828403121561108b57600080fd5b81356001600160e01b03198116811461107257600080fd5b600080602083850312156110b657600080fd5b823567ffffffffffffffff808211156110ce57600080fd5b818501915085601f8301126110e257600080fd5b8135818111156110f157600080fd5b8660208260051b850101111561110657600080fd5b60209290920196919550909350505050565b80356001600160a01b038116811461112f57600080fd5b919050565b60006020828403121561114657600080fd5b61107282611118565b6000806040838503121561116257600080fd5b50508035926020909101359150565b60006020828403121561118357600080fd5b5035919050565b6000806040838503121561119d57600080fd5b823591506111ad60208401611118565b90509250929050565b634e487b7160e01b600052603260045260246000fd5b634e487b7160e01b600052601160045260246000fd5b6000600182016111f4576111f46111cc565b5060010190565b60208082528181018390526000908460408401835b8681101561123c576001600160a01b0361122984611118565b1682529183019190830190600101611210565b509695505050505050565b60005b8381101561126257818101518382015260200161124a565b83811115611271576000848401525b50505050565b7f416363657373436f6e74726f6c3a206163636f756e74200000000000000000008152600083516112af816017850160208801611247565b7001034b99036b4b9b9b4b733903937b6329607d1b60179184019182015283516112e0816028840160208801611247565b01602801949350505050565b602081526000825180602084015261130b816040850160208701611247565b601f01601f19169190910160400192915050565b6000816000190483118215151615611339576113396111cc565b500290565b60008219821115611351576113516111cc565b500190565b634e487b7160e01b600052604160045260246000fd5b60008161137b5761137b6111cc565b50600019019056fe71f3d55856e4058ed06ee057d79ada615f65cdf5f9ee88181b914225088f834fa26469706673582212200058ee7dee007a2c6b2cb65ef1c9911ab5fae70f7e7d773ffb1c2b5a4a92fbc264736f6c634300080d0033",
  "linkReferences": {},
  "deployedLinkReferences": {}
}