{
  "_format": "hh-sol-artifact-1",
  "contractName": "Marketplace",
  "sourceName": "contracts/marketplace/Marketplace.sol",
  "abi": [
    {
      "inputs": [
        {
          "internalType": "contract IControlCenter",
          "name": "_controlCenter",
          "type": "address"
        },
        {
          "internalType": "address",
          "name": "_treasury",
          "type": "address"
        }
      ],
      "stateMutability": "nonpayable",
      "type": "constructor"
    },
    {
      "anonymous": false,
      "inputs": [
        {
          "indexed": false,
          "internalType": "address",
          "name": "nftContract",
          "type": "address"
        },
        {
          "indexed": false,
          "internalType": "uint256",
          "name": "tokenId",
          "type": "uint256"
        },
        {
          "indexed": false,
          "internalType": "address",
          "name": "bidder",
          "type": "address"
        },
        {
          "indexed": false,
          "internalType": "uint256",
          "name": "amount",
          "type": "uint256"
        }
      ],
      "name": "BiddingForAuction",
      "type": "event"
    },
    {
      "anonymous": false,
      "inputs": [
        {
          "indexed": true,
          "internalType": "address",
          "name": "buyer",
          "type": "address"
        },
        {
          "indexed": true,
          "internalType": "address",
          "name": "seller",
          "type": "address"
        },
        {
          "indexed": false,
          "internalType": "address",
          "name": "nftContract",
          "type": "address"
        },
        {
          "indexed": false,
          "internalType": "uint256",
          "name": "tokenId",
          "type": "uint256"
        },
        {
          "indexed": false,
          "internalType": "address",
          "name": "paymentToken",
          "type": "address"
        },
        {
          "indexed": false,
          "internalType": "uint256",
          "name": "costs",
          "type": "uint256"
        }
      ],
      "name": "Invoice",
      "type": "event"
    },
    {
      "anonymous": false,
      "inputs": [
        {
          "indexed": false,
          "internalType": "address",
          "name": "nftContract",
          "type": "address"
        },
        {
          "indexed": false,
          "internalType": "uint256",
          "name": "tokenId",
          "type": "uint256"
        },
        {
          "components": [
            {
              "internalType": "address",
              "name": "seller",
              "type": "address"
            },
            {
              "internalType": "bool",
              "name": "isPhygital",
              "type": "bool"
            },
            {
              "internalType": "uint256",
              "name": "startTime",
              "type": "uint256"
            },
            {
              "internalType": "uint256",
              "name": "endTime",
              "type": "uint256"
            },
            {
              "internalType": "address",
              "name": "bidder",
              "type": "address"
            },
            {
              "internalType": "address",
              "name": "paymentToken",
              "type": "address"
            },
            {
              "internalType": "uint256",
              "name": "amount",
              "type": "uint256"
            },
            {
              "internalType": "uint256",
              "name": "gap",
              "type": "uint256"
            }
          ],
          "indexed": false,
          "internalType": "struct MarketAuction.ItemAuction",
          "name": "_itemAuction",
          "type": "tuple"
        }
      ],
      "name": "ListForAuction",
      "type": "event"
    },
    {
      "anonymous": false,
      "inputs": [
        {
          "indexed": false,
          "internalType": "address",
          "name": "nftContract",
          "type": "address"
        },
        {
          "indexed": false,
          "internalType": "uint256",
          "name": "tokenId",
          "type": "uint256"
        },
        {
          "indexed": false,
          "internalType": "address",
          "name": "seller",
          "type": "address"
        },
        {
          "indexed": false,
          "internalType": "bool",
          "name": "isPhygital",
          "type": "bool"
        },
        {
          "indexed": false,
          "internalType": "address",
          "name": "paymentToken",
          "type": "address"
        },
        {
          "indexed": false,
          "internalType": "uint256",
          "name": "price",
          "type": "uint256"
        }
      ],
      "name": "ListForBuyNow",
      "type": "event"
    },
    {
      "anonymous": false,
      "inputs": [
        {
          "indexed": false,
          "internalType": "address",
          "name": "account",
          "type": "address"
        }
      ],
      "name": "Paused",
      "type": "event"
    },
    {
      "anonymous": false,
      "inputs": [
        {
          "indexed": false,
          "internalType": "address",
          "name": "nftContract",
          "type": "address"
        },
        {
          "indexed": false,
          "internalType": "uint256",
          "name": "tokenId",
          "type": "uint256"
        },
        {
          "indexed": false,
          "internalType": "enum Marketplace.PhygitalItemState",
          "name": "state",
          "type": "uint8"
        },
        {
          "indexed": false,
          "internalType": "uint256",
          "name": "nextUpdateDeadline",
          "type": "uint256"
        }
      ],
      "name": "PhygitalItemUpdated",
      "type": "event"
    },
    {
      "anonymous": false,
      "inputs": [
        {
          "indexed": false,
          "internalType": "address",
          "name": "nftContract",
          "type": "address"
        },
        {
          "indexed": false,
          "internalType": "uint256",
          "name": "tokenId",
          "type": "uint256"
        }
      ],
      "name": "RemoveItemForAuction",
      "type": "event"
    },
    {
      "anonymous": false,
      "inputs": [
        {
          "indexed": false,
          "internalType": "address",
          "name": "nftContract",
          "type": "address"
        },
        {
          "indexed": false,
          "internalType": "uint256",
          "name": "tokenId",
          "type": "uint256"
        }
      ],
      "name": "RemoveItemForBuyNow",
      "type": "event"
    },
    {
      "anonymous": false,
      "inputs": [
        {
          "indexed": false,
          "internalType": "address",
          "name": "token",
          "type": "address"
        },
        {
          "indexed": false,
          "internalType": "uint256",
          "name": "amount",
          "type": "uint256"
        }
      ],
      "name": "RescuesTokenStuck",
      "type": "event"
    },
    {
      "anonymous": false,
      "inputs": [
        {
          "indexed": false,
          "internalType": "address",
          "name": "account",
          "type": "address"
        }
      ],
      "name": "Unpaused",
      "type": "event"
    },
    {
      "anonymous": false,
      "inputs": [
        {
          "indexed": false,
          "internalType": "uint256",
          "name": "oldDuration",
          "type": "uint256"
        },
        {
          "indexed": false,
          "internalType": "uint256",
          "name": "newDuration",
          "type": "uint256"
        }
      ],
      "name": "UpdateDeliveryDuration",
      "type": "event"
    },
    {
      "anonymous": false,
      "inputs": [
        {
          "indexed": false,
          "internalType": "address",
          "name": "nftContract",
          "type": "address"
        },
        {
          "indexed": false,
          "internalType": "uint256",
          "name": "tokenId",
          "type": "uint256"
        },
        {
          "indexed": false,
          "internalType": "uint256",
          "name": "startTime",
          "type": "uint256"
        },
        {
          "indexed": false,
          "internalType": "uint256",
          "name": "endTime",
          "type": "uint256"
        },
        {
          "indexed": false,
          "internalType": "address",
          "name": "paymentToken",
          "type": "address"
        },
        {
          "indexed": false,
          "internalType": "uint256",
          "name": "amount",
          "type": "uint256"
        },
        {
          "indexed": false,
          "internalType": "uint256",
          "name": "gap",
          "type": "uint256"
        }
      ],
      "name": "UpdateItemForAuction",
      "type": "event"
    },
    {
      "anonymous": false,
      "inputs": [
        {
          "indexed": false,
          "internalType": "address",
          "name": "nftContract",
          "type": "address"
        },
        {
          "indexed": false,
          "internalType": "uint256",
          "name": "tokenId",
          "type": "uint256"
        },
        {
          "indexed": false,
          "internalType": "address",
          "name": "paymentToken",
          "type": "address"
        },
        {
          "indexed": false,
          "internalType": "uint256",
          "name": "price",
          "type": "uint256"
        }
      ],
      "name": "UpdateItemForBuyNow",
      "type": "event"
    },
    {
      "anonymous": false,
      "inputs": [
        {
          "indexed": false,
          "internalType": "address",
          "name": "token",
          "type": "address"
        },
        {
          "indexed": false,
          "internalType": "bool",
          "name": "isAllowed",
          "type": "bool"
        }
      ],
      "name": "UpdatePaymentToken",
      "type": "event"
    },
    {
      "anonymous": false,
      "inputs": [
        {
          "indexed": false,
          "internalType": "uint256",
          "name": "oldFee",
          "type": "uint256"
        },
        {
          "indexed": false,
          "internalType": "uint256",
          "name": "newFee",
          "type": "uint256"
        }
      ],
      "name": "UpdateReimbursementFee",
      "type": "event"
    },
    {
      "anonymous": false,
      "inputs": [
        {
          "indexed": false,
          "internalType": "uint256",
          "name": "oldFee",
          "type": "uint256"
        },
        {
          "indexed": false,
          "internalType": "uint256",
          "name": "newFee",
          "type": "uint256"
        }
      ],
      "name": "UpdateServiceFeePercent",
      "type": "event"
    },
    {
      "inputs": [],
      "name": "PERCENTAGE",
      "outputs": [
        {
          "internalType": "uint256",
          "name": "",
          "type": "uint256"
        }
      ],
      "stateMutability": "view",
      "type": "function"
    },
    {
      "inputs": [
        {
          "internalType": "address",
          "name": "nftContract",
          "type": "address"
        },
        {
          "internalType": "uint256",
          "name": "tokenId",
          "type": "uint256"
        },
        {
          "internalType": "uint256",
          "name": "amount",
          "type": "uint256"
        }
      ],
      "name": "biddingForAuction",
      "outputs": [],
      "stateMutability": "nonpayable",
      "type": "function"
    },
    {
      "inputs": [
        {
          "internalType": "address",
          "name": "nftContract",
          "type": "address"
        },
        {
          "internalType": "uint256",
          "name": "tokenId",
          "type": "uint256"
        }
      ],
      "name": "buyNow",
      "outputs": [],
      "stateMutability": "nonpayable",
      "type": "function"
    },
    {
      "inputs": [
        {
          "internalType": "address",
          "name": "nftContract",
          "type": "address"
        },
        {
          "internalType": "uint256",
          "name": "tokenId",
          "type": "uint256"
        }
      ],
      "name": "cancelItemAuction",
      "outputs": [],
      "stateMutability": "nonpayable",
      "type": "function"
    },
    {
      "inputs": [
        {
          "internalType": "address",
          "name": "nftContract",
          "type": "address"
        },
        {
          "internalType": "uint256",
          "name": "tokenId",
          "type": "uint256"
        }
      ],
      "name": "cancelItemBuyNow",
      "outputs": [],
      "stateMutability": "nonpayable",
      "type": "function"
    },
    {
      "inputs": [
        {
          "internalType": "address",
          "name": "nftContract",
          "type": "address"
        },
        {
          "internalType": "uint256",
          "name": "tokenId",
          "type": "uint256"
        }
      ],
      "name": "cancelListItemForAuction",
      "outputs": [],
      "stateMutability": "nonpayable",
      "type": "function"
    },
    {
      "inputs": [
        {
          "internalType": "address",
          "name": "nftContract",
          "type": "address"
        },
        {
          "internalType": "uint256",
          "name": "tokenId",
          "type": "uint256"
        }
      ],
      "name": "cancelListItemForBuyNow",
      "outputs": [],
      "stateMutability": "nonpayable",
      "type": "function"
    },
    {
      "inputs": [
        {
          "internalType": "address",
          "name": "nftContract",
          "type": "address"
        },
        {
          "internalType": "uint256",
          "name": "tokenId",
          "type": "uint256"
        }
      ],
      "name": "confirmReceivedItemAuction",
      "outputs": [],
      "stateMutability": "nonpayable",
      "type": "function"
    },
    {
      "inputs": [
        {
          "internalType": "address",
          "name": "nftContract",
          "type": "address"
        },
        {
          "internalType": "uint256",
          "name": "tokenId",
          "type": "uint256"
        }
      ],
      "name": "confirmReceivedItemBuyNow",
      "outputs": [],
      "stateMutability": "nonpayable",
      "type": "function"
    },
    {
      "inputs": [],
      "name": "controlCenter",
      "outputs": [
        {
          "internalType": "contract IControlCenter",
          "name": "",
          "type": "address"
        }
      ],
      "stateMutability": "view",
      "type": "function"
    },
    {
      "inputs": [],
      "name": "deliveryDuration",
      "outputs": [
        {
          "internalType": "uint256",
          "name": "",
          "type": "uint256"
        }
      ],
      "stateMutability": "view",
      "type": "function"
    },
    {
      "inputs": [
        {
          "internalType": "address",
          "name": "token",
          "type": "address"
        }
      ],
      "name": "inCaseTokensGetStuck",
      "outputs": [],
      "stateMutability": "nonpayable",
      "type": "function"
    },
    {
      "inputs": [
        {
          "internalType": "address",
          "name": "",
          "type": "address"
        }
      ],
      "name": "isPaymentToken",
      "outputs": [
        {
          "internalType": "bool",
          "name": "",
          "type": "bool"
        }
      ],
      "stateMutability": "view",
      "type": "function"
    },
    {
      "inputs": [
        {
          "internalType": "address",
          "name": "",
          "type": "address"
        },
        {
          "internalType": "uint256",
          "name": "",
          "type": "uint256"
        }
      ],
      "name": "itemAuction",
      "outputs": [
        {
          "internalType": "address",
          "name": "seller",
          "type": "address"
        },
        {
          "internalType": "bool",
          "name": "isPhygital",
          "type": "bool"
        },
        {
          "internalType": "uint256",
          "name": "startTime",
          "type": "uint256"
        },
        {
          "internalType": "uint256",
          "name": "endTime",
          "type": "uint256"
        },
        {
          "internalType": "address",
          "name": "bidder",
          "type": "address"
        },
        {
          "internalType": "address",
          "name": "paymentToken",
          "type": "address"
        },
        {
          "internalType": "uint256",
          "name": "amount",
          "type": "uint256"
        },
        {
          "internalType": "uint256",
          "name": "gap",
          "type": "uint256"
        }
      ],
      "stateMutability": "view",
      "type": "function"
    },
    {
      "inputs": [
        {
          "internalType": "address",
          "name": "",
          "type": "address"
        },
        {
          "internalType": "uint256",
          "name": "",
          "type": "uint256"
        }
      ],
      "name": "itemBuyNow",
      "outputs": [
        {
          "internalType": "address",
          "name": "seller",
          "type": "address"
        },
        {
          "internalType": "address",
          "name": "buyer",
          "type": "address"
        },
        {
          "internalType": "bool",
          "name": "isPhygital",
          "type": "bool"
        },
        {
          "internalType": "address",
          "name": "paymentToken",
          "type": "address"
        },
        {
          "internalType": "uint256",
          "name": "price",
          "type": "uint256"
        }
      ],
      "stateMutability": "view",
      "type": "function"
    },
    {
      "inputs": [
        {
          "internalType": "address",
          "name": "nftContract",
          "type": "address"
        },
        {
          "internalType": "uint256",
          "name": "tokenId",
          "type": "uint256"
        },
        {
          "internalType": "bool",
          "name": "isPhygital",
          "type": "bool"
        },
        {
          "internalType": "uint256",
          "name": "startTime",
          "type": "uint256"
        },
        {
          "internalType": "uint256",
          "name": "endTime",
          "type": "uint256"
        },
        {
          "internalType": "address",
          "name": "paymentToken",
          "type": "address"
        },
        {
          "internalType": "uint256",
          "name": "amount",
          "type": "uint256"
        },
        {
          "internalType": "uint256",
          "name": "gap",
          "type": "uint256"
        }
      ],
      "name": "listForAuction",
      "outputs": [],
      "stateMutability": "nonpayable",
      "type": "function"
    },
    {
      "inputs": [
        {
          "internalType": "address",
          "name": "nftContract",
          "type": "address"
        },
        {
          "internalType": "uint256",
          "name": "tokenId",
          "type": "uint256"
        },
        {
          "internalType": "bool",
          "name": "isPhygital",
          "type": "bool"
        },
        {
          "internalType": "address",
          "name": "paymentToken",
          "type": "address"
        },
        {
          "internalType": "uint256",
          "name": "price",
          "type": "uint256"
        }
      ],
      "name": "listForBuyNow",
      "outputs": [],
      "stateMutability": "nonpayable",
      "type": "function"
    },
    {
      "inputs": [
        {
          "internalType": "address",
          "name": "",
          "type": "address"
        },
        {
          "internalType": "address",
          "name": "",
          "type": "address"
        },
        {
          "internalType": "uint256",
          "name": "",
          "type": "uint256"
        },
        {
          "internalType": "bytes",
          "name": "",
          "type": "bytes"
        }
      ],
      "name": "onERC721Received",
      "outputs": [
        {
          "internalType": "bytes4",
          "name": "",
          "type": "bytes4"
        }
      ],
      "stateMutability": "pure",
      "type": "function"
    },
    {
      "inputs": [],
      "name": "pause",
      "outputs": [],
      "stateMutability": "nonpayable",
      "type": "function"
    },
    {
      "inputs": [],
      "name": "paused",
      "outputs": [
        {
          "internalType": "bool",
          "name": "",
          "type": "bool"
        }
      ],
      "stateMutability": "view",
      "type": "function"
    },
    {
      "inputs": [
        {
          "internalType": "address",
          "name": "nftContract",
          "type": "address"
        },
        {
          "internalType": "uint256",
          "name": "tokenId",
          "type": "uint256"
        }
      ],
      "name": "paymentProcessingItemAuction",
      "outputs": [],
      "stateMutability": "nonpayable",
      "type": "function"
    },
    {
      "inputs": [
        {
          "internalType": "address",
          "name": "",
          "type": "address"
        },
        {
          "internalType": "uint256",
          "name": "",
          "type": "uint256"
        }
      ],
      "name": "phygitalItem",
      "outputs": [
        {
          "internalType": "enum Marketplace.PhygitalItemState",
          "name": "state",
          "type": "uint8"
        },
        {
          "internalType": "uint256",
          "name": "nextUpdateDeadline",
          "type": "uint256"
        }
      ],
      "stateMutability": "view",
      "type": "function"
    },
    {
      "inputs": [],
      "name": "serviceFeePercent",
      "outputs": [
        {
          "internalType": "uint256",
          "name": "",
          "type": "uint256"
        }
      ],
      "stateMutability": "view",
      "type": "function"
    },
    {
      "inputs": [],
      "name": "treasury",
      "outputs": [
        {
          "internalType": "address",
          "name": "",
          "type": "address"
        }
      ],
      "stateMutability": "view",
      "type": "function"
    },
    {
      "inputs": [],
      "name": "unpause",
      "outputs": [],
      "stateMutability": "nonpayable",
      "type": "function"
    },
    {
      "inputs": [
        {
          "internalType": "uint256",
          "name": "newDuration",
          "type": "uint256"
        }
      ],
      "name": "updateDeliveryDuration",
      "outputs": [],
      "stateMutability": "nonpayable",
      "type": "function"
    },
    {
      "inputs": [
        {
          "internalType": "address",
          "name": "nftContract",
          "type": "address"
        },
        {
          "internalType": "uint256",
          "name": "tokenId",
          "type": "uint256"
        },
        {
          "internalType": "uint256",
          "name": "startTime",
          "type": "uint256"
        },
        {
          "internalType": "uint256",
          "name": "endTime",
          "type": "uint256"
        },
        {
          "internalType": "address",
          "name": "paymentToken",
          "type": "address"
        },
        {
          "internalType": "uint256",
          "name": "amount",
          "type": "uint256"
        },
        {
          "internalType": "uint256",
          "name": "gap",
          "type": "uint256"
        }
      ],
      "name": "updateItemForAuction",
      "outputs": [],
      "stateMutability": "nonpayable",
      "type": "function"
    },
    {
      "inputs": [
        {
          "internalType": "address",
          "name": "nftContract",
          "type": "address"
        },
        {
          "internalType": "uint256",
          "name": "tokenId",
          "type": "uint256"
        },
        {
          "internalType": "address",
          "name": "paymentToken",
          "type": "address"
        },
        {
          "internalType": "uint256",
          "name": "price",
          "type": "uint256"
        }
      ],
      "name": "updateItemForBuyNow",
      "outputs": [],
      "stateMutability": "nonpayable",
      "type": "function"
    },
    {
      "inputs": [
        {
          "internalType": "address",
          "name": "token",
          "type": "address"
        },
        {
          "internalType": "bool",
          "name": "isAllowed",
          "type": "bool"
        }
      ],
      "name": "updatePaymentToken",
      "outputs": [],
      "stateMutability": "nonpayable",
      "type": "function"
    },
    {
      "inputs": [
        {
          "internalType": "uint256",
          "name": "percent",
          "type": "uint256"
        }
      ],
      "name": "updateServiceFeePercent",
      "outputs": [],
      "stateMutability": "nonpayable",
      "type": "function"
    }
  ],
  "bytecode": "0x60c06040523480156200001157600080fd5b50604051620033da380380620033da83398101604081905262000034916200007b565b6002805460ff191690556001600160a01b039182166080521660a052600160035562127500600455620000ba565b6001600160a01b03811681146200007857600080fd5b50565b600080604083850312156200008f57600080fd5b82516200009c8162000062565b6020840151909250620000af8162000062565b809150509250929050565b60805160a0516132bb6200011f600039600081816103900152818161192c0152818161229f01526128220152600081816105a901528181610da901528181610e3a015281816111e50152818161169b015281816117b40152611af801526132bb6000f3fe608060405234801561001057600080fd5b50600436106101da5760003560e01c80638456cb5911610104578063ba2a8f02116100a2578063e49b486711610071578063e49b48671461056b578063ed294b251461057e578063f976060214610591578063fee1f775146105a457600080fd5b8063ba2a8f021461051f578063c7e01ad614610532578063def68a9c14610545578063df16b7f11461055857600080fd5b8063a450dfb4116100de578063a450dfb41461042d578063a666a44714610440578063a83b58fc14610453578063ace246f41461050c57600080fd5b80638456cb59146103f9578063930eaddc14610401578063995bc51e1461042457600080fd5b8063293315f21161017c57806361d027b31161014b57806361d027b31461038b57806366fb8635146103ca578063677b18f1146103dd5780638009fa31146103e657600080fd5b8063293315f2146103425780633f4ba83a146103595780634d96a598146103615780635c975abb1461037457600080fd5b80630e4bdc90116101b85780630e4bdc90146102d157806314c13afa146102e4578063150b7a02146102f757806325f017811461032f57600080fd5b80630154b66c146101df5780630af28ed9146102765780630c46f8f71461028b575b600080fd5b6102366101ed366004612c84565b600060208181529281526040808220909352908152208054600182015460028301546003909301546001600160a01b039283169383831693600160a01b90930460ff1692169085565b604080516001600160a01b0396871681529486166020860152921515928401929092529092166060820152608081019190915260a0015b60405180910390f35b610289610284366004612cae565b6105cb565b005b6102c3610299366004612c84565b60066020908152600092835260408084209091529082529020805460019091015460ff9091169082565b60405161026d929190612d19565b6102896102df366004612c84565b610761565b6102896102f2366004612c84565b610a21565b610316610305366004612d34565b630a85bd0160e11b95945050505050565b6040516001600160e01b0319909116815260200161026d565b61028961033d366004612de0565b610c7f565b61034b61271081565b60405190815260200161026d565b610289610d9f565b61028961036f366004612e56565b610e30565b60025460ff165b604051901515815260200161026d565b6103b27f000000000000000000000000000000000000000000000000000000000000000081565b6040516001600160a01b03909116815260200161026d565b6102896103d8366004612c84565b610f1b565b61034b60045481565b6102896103f4366004612e8d565b6110e0565b6102896111db565b61037b61040f366004612ed1565b60056020526000908152604090205460ff1681565b61034b60035481565b61028961043b366004612ef3565b61126a565b61028961044e366004612f56565b61132d565b6104bc610461366004612c84565b6001602081815260009384526040808520909152918352912080549181015460028201546003830154600484015460058501546006909501546001600160a01b0380881697600160a01b900460ff1696938116939216919088565b604080516001600160a01b03998a16815297151560208901528701959095526060860193909352908516608085015290931660a083015260c082019290925260e08101919091526101000161026d565b61028961051a366004612c84565b611421565b61028961052d366004612c84565b611502565b610289610540366004612fad565b611691565b610289610553366004612ed1565b6117aa565b610289610566366004612c84565b6119cb565b610289610579366004612fad565b611aee565b61028961058c366004612c84565b611bb7565b61028961059f366004612c84565b611d3a565b6103b27f000000000000000000000000000000000000000000000000000000000000000081565b6001600160a01b03838116600090815260016020818152604080842087855282529283902083516101008101855281548087168252600160a01b900460ff1615159281019290925291820154818401526002820154606082015260038201548416608082015260048083015490941660a08201819052600583015460c083015260069092015460e082015291516323b872dd60e01b81529192909182916323b872dd9161067e9133913091899101612fc6565b6020604051808303816000875af115801561069d573d6000803e3d6000fd5b505050506040513d601f19601f820116820180604052508101906106c19190612fea565b5060808201516001600160a01b03161561074e57608082015160c083015160405163a9059cbb60e01b81526001600160a01b0384169263a9059cbb9261070992600401613007565b6020604051808303816000875af1158015610728573d6000803e3d6000fd5b505050506040513d601f19601f8201168201806040525081019061074c9190612fea565b505b61075a85853386611f18565b5050505050565b610769612120565b6001600160a01b03828116600090815260208181526040808320858452825291829020825160a0810184528154851681526001820154808616938201849052600160a01b900460ff1615159381019390935260028101549093166060830152600390920154608082015290156107fa5760405162461bcd60e51b81526004016107f190613020565b60405180910390fd5b606081015160808201516040516323b872dd60e01b81526001600160a01b038316916323b872dd91610833913391309190600401612fc6565b6020604051808303816000875af1158015610852573d6000803e3d6000fd5b505050506040513d601f19601f820116820180604052508101906108769190612fea565b5081516001600160a01b0316336001600160a01b03167f189bbcbb86b0341b999f0163942ea682ba64a6d15aa5b7b395ee3212af0d4f0f8686866060015187608001516040516108c9949392919061304b565b60405180910390a381604001516108ea576108e48484612166565b50505050565b6001600160a01b038416600090815260208181526040808320868452909152812060010180546001600160a01b0319163317905560045461092b904261308b565b60408051808201909152909150806001815260209081018390526001600160a01b03871660009081526006825260408082208883529092522081518154829060ff1916600183600281111561098257610982612ce1565b02179055506020919091015160019091015582516001600160a01b0316336001600160a01b03167f189bbcbb86b0341b999f0163942ea682ba64a6d15aa5b7b395ee3212af0d4f0f8787876060015188608001516040516109e6949392919061304b565b60405180910390a36000805160206132668339815191528585600184604051610a1294939291906130a3565b60405180910390a15050505050565b6001600160a01b03828116600090815260016020818152604080842086855282529283902083516101008101855281548087168252600160a01b900460ff161515928101929092529182015492810192909252600281015460608301526003810154831660808301819052600482015490931660a0830152600581015460c08301526006015460e082015290331480610ac3575080516001600160a01b031633145b610adf5760405162461bcd60e51b81526004016107f1906130d6565b60016001600160a01b038416600090815260066020908152604080832086845290915290205460ff166002811115610b1957610b19612ce1565b14610b365760405162461bcd60e51b81526004016107f190613106565b8060a001516001600160a01b031663a9059cbb82608001518360c001516040518363ffffffff1660e01b8152600401610b70929190613007565b6020604051808303816000875af1158015610b8f573d6000803e3d6000fd5b505050506040513d601f19601f82011682018060405250810190610bb39190612fea565b508051604051632142170760e11b81526001600160a01b038516916342842e0e91610be49130918790600401612fc6565b600060405180830381600087803b158015610bfe57600080fd5b505af1158015610c12573d6000803e3d6000fd5b50505050610c208383612379565b6001600160a01b0383166000908152600660209081526040808320858452909152808220805460ff191681556001018290555160008051602061326683398151915291610c72918691869181906130a3565b60405180910390a1505050565b610c87612120565b6001600160a01b03831660009081526005602052604090205460ff16610cbf5760405162461bcd60e51b81526004016107f190613133565b6000604051806101000160405280610cd43390565b6001600160a01b03168152602001881515815260200187815260200186815260200160006001600160a01b03168152602001856001600160a01b03168152602001848152602001838152509050886001600160a01b03166342842e0e610d373390565b308b6040518463ffffffff1660e01b8152600401610d5793929190612fc6565b600060405180830381600087803b158015610d7157600080fd5b505af1158015610d85573d6000803e3d6000fd5b50505050610d9489898361249c565b505050505050505050565b6001600160a01b037f0000000000000000000000000000000000000000000000000000000000000000166313aeefdc336040516001600160e01b031960e084901b1681526001600160a01b03909116600482015260240160006040518083038186803b158015610e0e57600080fd5b505afa158015610e22573d6000803e3d6000fd5b50505050610e2e61267c565b565b6001600160a01b037f000000000000000000000000000000000000000000000000000000000000000016635139caa7336040516001600160e01b031960e084901b1681526001600160a01b03909116600482015260240160006040518083038186803b158015610e9f57600080fd5b505afa158015610eb3573d6000803e3d6000fd5b505050506001600160a01b038216600081815260056020908152604091829020805460ff19168515159081179091558251938452908301527f11b4c2b6450da8949b70f94de747d396f0a4fcedf7ffefe7332d323dd210258a91015b60405180910390a15050565b6001600160a01b03828116600090815260016020818152604080842086855282529283902083516101008101855281548087168252600160a01b900460ff161515928101929092529182015492810192909252600281015460608301526003810154831660808301819052600482015490931660a0830152600581015460c08301526006015460e0820152903314610fc55760405162461bcd60e51b81526004016107f1906130d6565b80516001600160a01b0316336001600160a01b03167f189bbcbb86b0341b999f0163942ea682ba64a6d15aa5b7b395ee3212af0d4f0f85858560a001518660c00151604051611017949392919061304b565b60405180910390a380602001516110375761103283836126ce565b505050565b600060045442611047919061308b565b60408051808201909152909150806001815260209081018390526001600160a01b03861660009081526006825260408082208783529092522081518154829060ff1916600183600281111561109e5761109e612ce1565b021790555060209190910151600191820155604051600080516020613266833981519152916110d2918791879186906130a3565b60405180910390a150505050565b6001600160a01b03848116600090815260208181526040808320878452825291829020825160a08101845281548516808252600183015480871694830194909452600160a01b90930460ff1615159381019390935260028101549093166060830152600390920154608082015290331461116c5760405162461bcd60e51b81526004016107f1906130d6565b60208101516001600160a01b0316156111975760405162461bcd60e51b81526004016107f190613020565b6001600160a01b03831660009081526005602052604090205460ff166111cf5760405162461bcd60e51b81526004016107f190613133565b61075a858585856128fc565b6001600160a01b037f0000000000000000000000000000000000000000000000000000000000000000166313aeefdc336040516001600160e01b031960e084901b1681526001600160a01b03909116600482015260240160006040518083038186803b15801561124a57600080fd5b505afa15801561125e573d6000803e3d6000fd5b50505050610e2e612975565b6001600160a01b0387811660009081526001602090815260408083208a84529091529020805490911633146112b15760405162461bcd60e51b81526004016107f1906130d6565b60038101546001600160a01b0316156112dc5760405162461bcd60e51b81526004016107f190613020565b6001600160a01b03841660009081526005602052604090205460ff166113145760405162461bcd60e51b81526004016107f190613133565b611323888888888888886129b2565b5050505050505050565b611335612120565b6001600160a01b03821660009081526005602052604090205460ff1661136d5760405162461bcd60e51b81526004016107f190613133565b604051632142170760e11b81526001600160a01b038616906342842e0e9061139d90339030908990600401612fc6565b600060405180830381600087803b1580156113b757600080fd5b505af11580156113cb573d6000803e3d6000fd5b5050505060006040518060a001604052806113e33390565b6001600160a01b039081168252600060208301528615156040830152851660608201526080018390529050611419868683612abf565b505050505050565b6001600160a01b0382811660009081526001602090815260408083208584529091529020805490911633146114685760405162461bcd60e51b81526004016107f1906130d6565b60038101546001600160a01b0316156114935760405162461bcd60e51b81526004016107f190613020565b8054604051632142170760e11b81526001600160a01b03808616926342842e0e926114c692309216908790600401612fc6565b600060405180830381600087803b1580156114e057600080fd5b505af11580156114f4573d6000803e3d6000fd5b505050506110328383612379565b6001600160a01b038216600090815260066020908152604080832084845290915280822081518083019092528054829060ff16600281111561154657611546612ce1565b600281111561155757611557612ce1565b8152602001600182015481525050905061156e3390565b6001600160a01b03848116600090815260016020908152604080832087845290915290206003015481169116146115b75760405162461bcd60e51b81526004016107f1906130d6565b6001815160028111156115cc576115cc612ce1565b146115e95760405162461bcd60e51b81526004016107f190613106565b428160200151116116335760405162461bcd60e51b81526020600482015260146024820152734d61726b6574706c6163653a204f56455244554560601b60448201526064016107f1565b61163d83836126ce565b6001600160a01b0383166000908152600660209081526040808320858452909152808220805460ff191681556001908101839055905160008051602061326683398151915292610c729287928792906130a3565b6001600160a01b037f000000000000000000000000000000000000000000000000000000000000000016635139caa7336040516001600160e01b031960e084901b1681526001600160a01b03909116600482015260240160006040518083038186803b15801561170057600080fd5b505afa158015611714573d6000803e3d6000fd5b5050505061271081106117695760405162461bcd60e51b815260206004820152601860248201527f4d61726b6574436f72653a204645455f544f4f5f48494748000000000000000060448201526064016107f1565b60035460408051918252602082018390527f3cb56d49c385407a2f1dbc11bcb0f4b9b15dd23ed43f5fba11aa673562eb809c910160405180910390a1600355565b6001600160a01b037f000000000000000000000000000000000000000000000000000000000000000016635139caa7336040516001600160e01b031960e084901b1681526001600160a01b03909116600482015260240160006040518083038186803b15801561181957600080fd5b505afa15801561182d573d6000803e3d6000fd5b505050506001600160a01b03811660009081526005602052604090205460ff161561189a5760405162461bcd60e51b815260206004820152601c60248201527f4d61726b6574436f72653a20535455434b5f544f4b454e5f4f4e4c590000000060448201526064016107f1565b6040516370a0823160e01b81523060048201526000906001600160a01b038316906370a0823190602401602060405180830381865afa1580156118e1573d6000803e3d6000fd5b505050506040513d601f19601f82011682018060405250810190611905919061316a565b60405163a9059cbb60e01b81529091506001600160a01b0383169063a9059cbb90611956907f0000000000000000000000000000000000000000000000000000000000000000908590600401613007565b6020604051808303816000875af1158015611975573d6000803e3d6000fd5b505050506040513d601f19601f820116820180604052508101906119999190612fea565b507f89452ef30538a3560e3d4a2e4b57f7c7796bb0f083e15e5632ddb872ff5b313b8282604051610f0f929190613007565b6001600160a01b03828116600090815260208181526040808320858452825291829020825160a08101845281548516808252600183015480871694830194909452600160a01b90930460ff16151593810193909352600281015490931660608301526003909201546080820152903314611a575760405162461bcd60e51b81526004016107f1906130d6565b60208101516001600160a01b031615611a825760405162461bcd60e51b81526004016107f190613020565b8051604051632142170760e11b81526001600160a01b038516916342842e0e91611ab29130918790600401612fc6565b600060405180830381600087803b158015611acc57600080fd5b505af1158015611ae0573d6000803e3d6000fd5b505050506110328383612b99565b6001600160a01b037f0000000000000000000000000000000000000000000000000000000000000000166313aeefdc336040516001600160e01b031960e084901b1681526001600160a01b03909116600482015260240160006040518083038186803b158015611b5d57600080fd5b505afa158015611b71573d6000803e3d6000fd5b505060045460408051918252602082018590527f70e85c3591d022a9db4881bd3862118d1a568e1a910a1c020fca08ede3a40dfe935001905060405180910390a1600455565b6001600160a01b038216600090815260066020908152604080832084845290915280822081518083019092528054829060ff166002811115611bfb57611bfb612ce1565b6002811115611c0c57611c0c612ce1565b815260019182015460209091015290915081516002811115611c3057611c30612ce1565b14611c4d5760405162461bcd60e51b81526004016107f190613106565b42816020015111611c975760405162461bcd60e51b81526020600482015260146024820152734d61726b6574706c6163653a204f56455244554560601b60448201526064016107f1565b6001600160a01b03838116600090815260208181526040808320868452909152902060010154163314611cdc5760405162461bcd60e51b81526004016107f1906130d6565b611ce68383612166565b6001600160a01b0383166000908152600660209081526040808320858452909152808220805460ff191681556001018290555160008051602061326683398151915291610c729186918691600291906130a3565b6001600160a01b03828116600090815260208181526040808320858452825291829020825160a0810184528154851681526001820154808616938201849052600160a01b900460ff1615159381019390935260028101549093166060830152600390920154608082015290331480611dbb575080516001600160a01b031633145b611dd75760405162461bcd60e51b81526004016107f1906130d6565b60016001600160a01b038416600090815260066020908152604080832086845290915290205460ff166002811115611e1157611e11612ce1565b14611e2e5760405162461bcd60e51b81526004016107f190613106565b80606001516001600160a01b031663a9059cbb826020015183608001516040518363ffffffff1660e01b8152600401611e68929190613007565b6020604051808303816000875af1158015611e87573d6000803e3d6000fd5b505050506040513d601f19601f82011682018060405250810190611eab9190612fea565b508051604051632142170760e11b81526001600160a01b038516916342842e0e91611edc9130918790600401612fc6565b600060405180830381600087803b158015611ef657600080fd5b505af1158015611f0a573d6000803e3d6000fd5b50505050610c208383612b99565b6001600160a01b03848116600090815260016020818152604080842088855282529283902083516101008101855281548087168252600160a01b900460ff161515928101929092529182015492810183905260028201546060820152600382015484166080820152600482015490931660a0840152600581015460c08401526006015460e08301524211611fee5760405162461bcd60e51b815260206004820152601a60248201527f4d61726b657441756374696f6e3a204e4f545f5354415254454400000000000060448201526064016107f1565b428160600151116120415760405162461bcd60e51b815260206004820152601c60248201527f4d61726b657441756374696f6e3a2041554354494f4e5f454e4445440000000060448201526064016107f1565b818160e001518260c00151612056919061308b565b11156120a45760405162461bcd60e51b815260206004820152601d60248201527f4d61726b657441756374696f6e3a20414d4f554e545f544f4f5f4c4f5700000060448201526064016107f1565b6001600160a01b038581166000908152600160209081526040808320888452909152908190206003810180546001600160a01b031916938716939093179092556005909101839055517fbb48aa2f5049ed4f638a4d82bab6451f398c09a11dc3476ece0b9044b0b2089390610a1290879087908790879061304b565b60025460ff1615610e2e5760405162461bcd60e51b815260206004820152601060248201526f14185d5cd8589b194e881c185d5cd95960821b60448201526064016107f1565b6001600160a01b038281166000908152602081815260408083208584528252808320815160a081018352815486168152600182015480871694820194909452600160a01b90930460ff161515918301919091526002810154909316606082018190526003938401546080830181905293549193909291612710916121ea9190613183565b6121f491906131a2565b9050816001600160a01b031663a9059cbb846000015183866080015161221a91906131c4565b6040518363ffffffff1660e01b8152600401612237929190613007565b6020604051808303816000875af1158015612256573d6000803e3d6000fd5b505050506040513d601f19601f8201168201806040525081019061227a9190612fea565b5060405163a9059cbb60e01b81526001600160a01b0383169063a9059cbb906122c9907f0000000000000000000000000000000000000000000000000000000000000000908590600401613007565b6020604051808303816000875af11580156122e8573d6000803e3d6000fd5b505050506040513d601f19601f8201168201806040525081019061230c9190612fea565b50604051632142170760e11b81526001600160a01b038616906342842e0e9061233d90309033908990600401612fc6565b600060405180830381600087803b15801561235757600080fd5b505af115801561236b573d6000803e3d6000fd5b5050505061075a8585612b99565b6001600160a01b0382166000908152600160208181526040808420858552909152909120908101544210806123b15750428160020154105b6123fd5760405162461bcd60e51b815260206004820152601d60248201527f4d61726b657441756374696f6e3a2041554354494f4e5f41435449564500000060448201526064016107f1565b6001600160a01b038316600090815260016020818152604080842086855290915280832080546001600160a81b0319168155918201839055600282018390556003820180546001600160a01b0319908116909155600483018054909116905560058201839055600690910191909155517f0ad9542e6165a8043430e34f4f96707ddfac52a9bd3d0542a0d12e3594c0b4d390610c729085908590613007565b428160400151116124ef5760405162461bcd60e51b815260206004820152601e60248201527f4d61726b657441756374696f6e3a2041554354494f4e5f53544152544544000060448201526064016107f1565b6060810151604082015161250590610e1061308b565b106125525760405162461bcd60e51b815260206004820152601f60248201527f4d61726b657441756374696f6e3a20494e56414c49445f454e445f54494d450060448201526064016107f1565b60008160e00151116125a05760405162461bcd60e51b81526020600482015260176024820152764d61726b657441756374696f6e3a204741505f5a45524f60481b60448201526064016107f1565b6001600160a01b03808416600090815260016020818152604080842087855282529283902085518154928701511515600160a01b026001600160a81b03199093169086161791909117815582850151918101919091556060840151600282015560808401516003820180549185166001600160a01b031992831617905560a08501516004830180549190951691161790925560c0830151600583015560e0830151600690920191909155517f7b0a71461faf1e2d97593efbcef279e4a64c6f5780ae869a7277d698a4c2d8e190610c72908590859085906131db565b612684612c1f565b6002805460ff191690557f5db9ee0a495bf2e6ff9c91a7834c1ba4fdd244a5e8aa4e537bd38aeae4b073aa335b6040516001600160a01b03909116815260200160405180910390a1565b6001600160a01b038281166000908152600160208181526040808420868552825280842081516101008101835281548088168252600160a01b900460ff1615159381019390935292830154908201526002820154606082015260038083015485166080830152600483015490941660a08201819052600583015460c0830181905260069093015460e08301529354909392916127109161276d91613183565b61277791906131a2565b9050816001600160a01b031663a9059cbb8460000151838660c0015161279d91906131c4565b6040518363ffffffff1660e01b81526004016127ba929190613007565b6020604051808303816000875af11580156127d9573d6000803e3d6000fd5b505050506040513d601f19601f820116820180604052508101906127fd9190612fea565b5060405163a9059cbb60e01b81526001600160a01b0383169063a9059cbb9061284c907f0000000000000000000000000000000000000000000000000000000000000000908590600401613007565b6020604051808303816000875af115801561286b573d6000803e3d6000fd5b505050506040513d601f19601f8201168201806040525081019061288f9190612fea565b50604051632142170760e11b81526001600160a01b038616906342842e0e906128c090309033908990600401612fc6565b600060405180830381600087803b1580156128da57600080fd5b505af11580156128ee573d6000803e3d6000fd5b5050505061075a8585612379565b6001600160a01b03848116600090815260208181526040808320878452909152908190206002810180546001600160a01b0319169386169390931790925560038201839055517f37dd361916d4499cbc428f5ca5f96091b57e92b95499a17b56072db92a63c64e90610a1290879087908790879061304b565b61297d612120565b6002805460ff191660011790557f62e78cea01bee320cd4e420270b5ea74000d11b0c9f74754ebdbfc544b05a2586126b13390565b6001600160a01b0387166000908152600160209081526040808320898452909152902081612a1c5760405162461bcd60e51b81526020600482015260176024820152764d61726b657441756374696f6e3a204741505f5a45524f60481b60448201526064016107f1565b60018101869055600281018590556004810180546001600160a01b0319166001600160a01b03868116918217909255600583018590556006830184905560408051928b168352602083018a9052820188905260608201879052608082015260a0810184905260c081018390527f22ba6acbbc9bd3b48f0696b433714ce8ed483387d381018cba3acdc354e851809060e00160405180910390a15050505050505050565b6001600160a01b03838116600081815260208181526040808320878452825291829020855181549086166001600160a01b031991821681178355878401516001840180548a8801511515600160a01b81026001600160a81b0319909216938b16939093171790556060808a015160028601805491909a16941684179098556080808a0151600390950185905586519788529487018a9052948601529484019290925282019290925260a08101919091527f59765e87639baba76e340c9305c2c476945dc4003ffd0e6b4a4f0335ccdb5cbd9060c001610c72565b6001600160a01b03821660009081526020818152604080832084845290915280822080546001600160a01b031990811682556001820180546001600160a81b0319169055600282018054909116905560030191909155517f7467d94370b5788eed55da516e747c3eefb3c6778cab116630295c16dd57af6a90610f0f9084908490613007565b60025460ff16610e2e5760405162461bcd60e51b815260206004820152601460248201527314185d5cd8589b194e881b9bdd081c185d5cd95960621b60448201526064016107f1565b80356001600160a01b0381168114612c7f57600080fd5b919050565b60008060408385031215612c9757600080fd5b612ca083612c68565b946020939093013593505050565b600080600060608486031215612cc357600080fd5b612ccc84612c68565b95602085013595506040909401359392505050565b634e487b7160e01b600052602160045260246000fd5b60038110612d1557634e487b7160e01b600052602160045260246000fd5b9052565b60408101612d278285612cf7565b8260208301529392505050565b600080600080600060808688031215612d4c57600080fd5b612d5586612c68565b9450612d6360208701612c68565b935060408601359250606086013567ffffffffffffffff80821115612d8757600080fd5b818801915088601f830112612d9b57600080fd5b813581811115612daa57600080fd5b896020828501011115612dbc57600080fd5b9699959850939650602001949392505050565b8015158114612ddd57600080fd5b50565b600080600080600080600080610100898b031215612dfd57600080fd5b612e0689612c68565b9750602089013596506040890135612e1d81612dcf565b95506060890135945060808901359350612e3960a08a01612c68565b925060c0890135915060e089013590509295985092959890939650565b60008060408385031215612e6957600080fd5b612e7283612c68565b91506020830135612e8281612dcf565b809150509250929050565b60008060008060808587031215612ea357600080fd5b612eac85612c68565b935060208501359250612ec160408601612c68565b9396929550929360600135925050565b600060208284031215612ee357600080fd5b612eec82612c68565b9392505050565b600080600080600080600060e0888a031215612f0e57600080fd5b612f1788612c68565b9650602088013595506040880135945060608801359350612f3a60808901612c68565b925060a0880135915060c0880135905092959891949750929550565b600080600080600060a08688031215612f6e57600080fd5b612f7786612c68565b9450602086013593506040860135612f8e81612dcf565b9250612f9c60608701612c68565b949793965091946080013592915050565b600060208284031215612fbf57600080fd5b5035919050565b6001600160a01b039384168152919092166020820152604081019190915260600190565b600060208284031215612ffc57600080fd5b8151612eec81612dcf565b6001600160a01b03929092168252602082015260400190565b60208082526011908201527013585c9ad95d1c1b1858d94e8814d3d311607a1b604082015260600190565b6001600160a01b039485168152602081019390935292166040820152606081019190915260800190565b634e487b7160e01b600052601160045260246000fd5b6000821982111561309e5761309e613075565b500190565b6001600160a01b038516815260208101849052608081016130c76040830185612cf7565b82606083015295945050505050565b60208082526016908201527526b0b935b2ba383630b1b29d102327a92124a22222a760511b604082015260600190565b60208082526013908201527213585c9ad95d1c1b1858d94e88155394d3d311606a1b604082015260600190565b6020808252601d908201527f4d61726b6574706c6163653a20554e41434345505445445f544f4b454e000000604082015260600190565b60006020828403121561317c57600080fd5b5051919050565b600081600019048311821515161561319d5761319d613075565b500290565b6000826131bf57634e487b7160e01b600052601260045260246000fd5b500490565b6000828210156131d6576131d6613075565b500390565b60006101408201905060018060a01b03808616835284602084015280845116604084015260208401511515606084015260408401516080840152606084015160a08401528060808501511660c08401525060a083015161324660e08401826001600160a01b03169052565b5060c083015161010083015260e083015161012083015294935050505056feac5b18799d9872c1734b11fb98c49b5a5291e8d2a28ffa92cd625df854e55a83a264697066735822122058a443b4d58fc9b8458d9c1c11bb83e154e498480b74e5fa3a8f6297cfe3f69264736f6c634300080d0033",
  "linkReferences": {},
  "deployedLinkReferences": {}
}