{
  "_format": "hh-sol-artifact-1",
  "contractName": "Collection",
  "sourceName": "contracts/nft/Collection.sol",
  "abi": [
    {
      "inputs": [],
      "stateMutability": "nonpayable",
      "type": "constructor"
    },
    {
      "anonymous": false,
      "inputs": [
        {
          "indexed": true,
          "internalType": "address",
          "name": "owner",
          "type": "address"
        },
        {
          "indexed": true,
          "internalType": "address",
          "name": "approved",
          "type": "address"
        },
        {
          "indexed": true,
          "internalType": "uint256",
          "name": "tokenId",
          "type": "uint256"
        }
      ],
      "name": "Approval",
      "type": "event"
    },
    {
      "anonymous": false,
      "inputs": [
        {
          "indexed": true,
          "internalType": "address",
          "name": "owner",
          "type": "address"
        },
        {
          "indexed": true,
          "internalType": "address",
          "name": "operator",
          "type": "address"
        },
        {
          "indexed": false,
          "internalType": "bool",
          "name": "approved",
          "type": "bool"
        }
      ],
      "name": "ApprovalForAll",
      "type": "event"
    },
    {
      "anonymous": false,
      "inputs": [
        {
          "indexed": false,
          "internalType": "string",
          "name": "oldBaseURI",
          "type": "string"
        },
        {
          "indexed": false,
          "internalType": "string",
          "name": "newBaseURI",
          "type": "string"
        }
      ],
      "name": "BaseURIUpdated",
      "type": "event"
    },
    {
      "anonymous": false,
      "inputs": [
        {
          "indexed": false,
          "internalType": "uint8",
          "name": "version",
          "type": "uint8"
        }
      ],
      "name": "Initialized",
      "type": "event"
    },
    {
      "anonymous": false,
      "inputs": [
        {
          "indexed": false,
          "internalType": "address",
          "name": "account",
          "type": "address"
        }
      ],
      "name": "Paused",
      "type": "event"
    },
    {
      "anonymous": false,
      "inputs": [
        {
          "indexed": false,
          "internalType": "address",
          "name": "token",
          "type": "address"
        },
        {
          "indexed": false,
          "internalType": "uint256",
          "name": "amount",
          "type": "uint256"
        }
      ],
      "name": "RescuesTokenStuck",
      "type": "event"
    },
    {
      "anonymous": false,
      "inputs": [
        {
          "indexed": false,
          "internalType": "uint256",
          "name": "oldServiceFee",
          "type": "uint256"
        },
        {
          "indexed": false,
          "internalType": "uint256",
          "name": "newServiceFee",
          "type": "uint256"
        }
      ],
      "name": "ServiceFeeChange",
      "type": "event"
    },
    {
      "anonymous": false,
      "inputs": [
        {
          "indexed": true,
          "internalType": "address",
          "name": "from",
          "type": "address"
        },
        {
          "indexed": true,
          "internalType": "address",
          "name": "to",
          "type": "address"
        },
        {
          "indexed": true,
          "internalType": "uint256",
          "name": "tokenId",
          "type": "uint256"
        }
      ],
      "name": "Transfer",
      "type": "event"
    },
    {
      "anonymous": false,
      "inputs": [
        {
          "indexed": false,
          "internalType": "address",
          "name": "account",
          "type": "address"
        }
      ],
      "name": "Unpaused",
      "type": "event"
    },
    {
      "inputs": [
        {
          "internalType": "address",
          "name": "to",
          "type": "address"
        },
        {
          "internalType": "uint256",
          "name": "tokenId",
          "type": "uint256"
        }
      ],
      "name": "approve",
      "outputs": [],
      "stateMutability": "nonpayable",
      "type": "function"
    },
    {
      "inputs": [
        {
          "internalType": "address",
          "name": "owner",
          "type": "address"
        }
      ],
      "name": "balanceOf",
      "outputs": [
        {
          "internalType": "uint256",
          "name": "",
          "type": "uint256"
        }
      ],
      "stateMutability": "view",
      "type": "function"
    },
    {
      "inputs": [],
      "name": "baseURI",
      "outputs": [
        {
          "internalType": "string",
          "name": "",
          "type": "string"
        }
      ],
      "stateMutability": "view",
      "type": "function"
    },
    {
      "inputs": [
        {
          "internalType": "uint256",
          "name": "tokenId",
          "type": "uint256"
        }
      ],
      "name": "burn",
      "outputs": [],
      "stateMutability": "nonpayable",
      "type": "function"
    },
    {
      "inputs": [],
      "name": "creator",
      "outputs": [
        {
          "internalType": "address",
          "name": "",
          "type": "address"
        }
      ],
      "stateMutability": "view",
      "type": "function"
    },
    {
      "inputs": [],
      "name": "currentTokenId",
      "outputs": [
        {
          "internalType": "uint256",
          "name": "",
          "type": "uint256"
        }
      ],
      "stateMutability": "view",
      "type": "function"
    },
    {
      "inputs": [
        {
          "internalType": "uint256",
          "name": "tokenId",
          "type": "uint256"
        }
      ],
      "name": "getApproved",
      "outputs": [
        {
          "internalType": "address",
          "name": "",
          "type": "address"
        }
      ],
      "stateMutability": "view",
      "type": "function"
    },
    {
      "inputs": [
        {
          "internalType": "uint256",
          "name": "",
          "type": "uint256"
        }
      ],
      "name": "hashedMetadata",
      "outputs": [
        {
          "internalType": "bytes",
          "name": "",
          "type": "bytes"
        }
      ],
      "stateMutability": "view",
      "type": "function"
    },
    {
      "inputs": [
        {
          "internalType": "address",
          "name": "_creator",
          "type": "address"
        },
        {
          "internalType": "string",
          "name": "_name",
          "type": "string"
        },
        {
          "internalType": "string",
          "name": "_symbol",
          "type": "string"
        },
        {
          "internalType": "string",
          "name": "_newBaseURI",
          "type": "string"
        }
      ],
      "name": "initialize",
      "outputs": [],
      "stateMutability": "nonpayable",
      "type": "function"
    },
    {
      "inputs": [
        {
          "internalType": "address",
          "name": "owner",
          "type": "address"
        },
        {
          "internalType": "address",
          "name": "operator",
          "type": "address"
        }
      ],
      "name": "isApprovedForAll",
      "outputs": [
        {
          "internalType": "bool",
          "name": "",
          "type": "bool"
        }
      ],
      "stateMutability": "view",
      "type": "function"
    },
    {
      "inputs": [
        {
          "internalType": "address",
          "name": "to",
          "type": "address"
        },
        {
          "internalType": "bytes",
          "name": "_hashedMetadata",
          "type": "bytes"
        }
      ],
      "name": "mint",
      "outputs": [
        {
          "internalType": "uint256",
          "name": "tokenId",
          "type": "uint256"
        }
      ],
      "stateMutability": "nonpayable",
      "type": "function"
    },
    {
      "inputs": [
        {
          "internalType": "address",
          "name": "to",
          "type": "address"
        },
        {
          "internalType": "address",
          "name": "operator",
          "type": "address"
        },
        {
          "internalType": "bytes",
          "name": "_hashedMetadata",
          "type": "bytes"
        }
      ],
      "name": "mintAndApprove",
      "outputs": [
        {
          "internalType": "uint256",
          "name": "tokenId",
          "type": "uint256"
        }
      ],
      "stateMutability": "nonpayable",
      "type": "function"
    },
    {
      "inputs": [],
      "name": "name",
      "outputs": [
        {
          "internalType": "string",
          "name": "",
          "type": "string"
        }
      ],
      "stateMutability": "view",
      "type": "function"
    },
    {
      "inputs": [
        {
          "internalType": "uint256",
          "name": "tokenId",
          "type": "uint256"
        }
      ],
      "name": "ownerOf",
      "outputs": [
        {
          "internalType": "address",
          "name": "",
          "type": "address"
        }
      ],
      "stateMutability": "view",
      "type": "function"
    },
    {
      "inputs": [],
      "name": "paused",
      "outputs": [
        {
          "internalType": "bool",
          "name": "",
          "type": "bool"
        }
      ],
      "stateMutability": "view",
      "type": "function"
    },
    {
      "inputs": [
        {
          "internalType": "address",
          "name": "from",
          "type": "address"
        },
        {
          "internalType": "address",
          "name": "to",
          "type": "address"
        },
        {
          "internalType": "uint256",
          "name": "tokenId",
          "type": "uint256"
        }
      ],
      "name": "safeTransferFrom",
      "outputs": [],
      "stateMutability": "nonpayable",
      "type": "function"
    },
    {
      "inputs": [
        {
          "internalType": "address",
          "name": "from",
          "type": "address"
        },
        {
          "internalType": "address",
          "name": "to",
          "type": "address"
        },
        {
          "internalType": "uint256",
          "name": "tokenId",
          "type": "uint256"
        },
        {
          "internalType": "bytes",
          "name": "data",
          "type": "bytes"
        }
      ],
      "name": "safeTransferFrom",
      "outputs": [],
      "stateMutability": "nonpayable",
      "type": "function"
    },
    {
      "inputs": [
        {
          "internalType": "address",
          "name": "operator",
          "type": "address"
        },
        {
          "internalType": "bool",
          "name": "approved",
          "type": "bool"
        }
      ],
      "name": "setApprovalForAll",
      "outputs": [],
      "stateMutability": "nonpayable",
      "type": "function"
    },
    {
      "inputs": [
        {
          "internalType": "bytes4",
          "name": "interfaceId",
          "type": "bytes4"
        }
      ],
      "name": "supportsInterface",
      "outputs": [
        {
          "internalType": "bool",
          "name": "",
          "type": "bool"
        }
      ],
      "stateMutability": "view",
      "type": "function"
    },
    {
      "inputs": [],
      "name": "symbol",
      "outputs": [
        {
          "internalType": "string",
          "name": "",
          "type": "string"
        }
      ],
      "stateMutability": "view",
      "type": "function"
    },
    {
      "inputs": [
        {
          "internalType": "uint256",
          "name": "tokenId",
          "type": "uint256"
        }
      ],
      "name": "tokenURI",
      "outputs": [
        {
          "internalType": "string",
          "name": "",
          "type": "string"
        }
      ],
      "stateMutability": "view",
      "type": "function"
    },
    {
      "inputs": [
        {
          "internalType": "address",
          "name": "from",
          "type": "address"
        },
        {
          "internalType": "address",
          "name": "to",
          "type": "address"
        },
        {
          "internalType": "uint256",
          "name": "tokenId",
          "type": "uint256"
        }
      ],
      "name": "transferFrom",
      "outputs": [],
      "stateMutability": "nonpayable",
      "type": "function"
    },
    {
      "inputs": [
        {
          "internalType": "string",
          "name": "newBaseURI",
          "type": "string"
        }
      ],
      "name": "updateBaseURI",
      "outputs": [],
      "stateMutability": "nonpayable",
      "type": "function"
    }
  ],
  "bytecode": "0x608060405234801561001057600080fd5b5060ca80546001600160a01b03191661dead179055611da5806100346000396000f3fe608060405234801561001057600080fd5b506004361061014c5760003560e01c80635c975abb116100c357806395d89b411161007c57806395d89b41146102b5578063a22cb465146102bd578063b510391f146102d0578063b88d4fde146102e3578063c87b56dd146102f6578063e985e9c51461030957600080fd5b80635c975abb146102565780635f1e6f6d146102615780636352211e146102745780636c0360eb1461028757806370a082311461028f578063931688cb146102a257600080fd5b8063095ea7b311610115578063095ea7b3146101e257806320035b30146101f757806323b872dd1461020a5780633b166f021461021d57806342842e0e1461023057806342966c681461024357600080fd5b80629a9b7b1461015157806301ffc9a71461016c57806302d05d3f1461018f57806306fdde03146101ba578063081812fc146101cf575b600080fd5b610159610345565b6040519081526020015b60405180910390f35b61017f61017a3660046115e1565b610355565b6040519015158152602001610163565b60ca546101a2906001600160a01b031681565b6040516001600160a01b039091168152602001610163565b6101c26103a7565b6040516101639190611656565b6101a26101dd366004611669565b610439565b6101f56101f036600461169e565b610460565b005b610159610205366004611711565b61057a565b6101f5610218366004611772565b6105ef565b6101c261022b366004611669565b610620565b6101f561023e366004611772565b6106ba565b6101f5610251366004611669565b6106d5565b60975460ff1661017f565b6101f561026f3660046117ae565b61076a565b6101a2610282366004611669565b61096c565b6101c26109cc565b61015961029d366004611859565b6109d9565b6101f56102b0366004611874565b610a5f565b6101c2610ad1565b6101f56102cb3660046118b6565b610ae0565b6101596102de3660046118f2565b610aef565b6101f56102f136600461195b565b610b59565b6101c2610304366004611669565b610b91565b61017f610317366004611a37565b6001600160a01b039182166000908152606a6020908152604080832093909416825291909152205460ff1690565b600061035060c95490565b905090565b60006001600160e01b031982166380ac58cd60e01b148061038657506001600160e01b03198216635b5e139f60e01b145b806103a157506301ffc9a760e01b6001600160e01b03198316145b92915050565b6060606580546103b690611a6a565b80601f01602080910402602001604051908101604052809291908181526020018280546103e290611a6a565b801561042f5780601f106104045761010080835404028352916020019161042f565b820191906000526020600020905b81548152906001019060200180831161041257829003601f168201915b5050505050905090565b600061044482610bf7565b506000908152606960205260409020546001600160a01b031690565b600061046b8261096c565b9050806001600160a01b0316836001600160a01b0316036104dd5760405162461bcd60e51b815260206004820152602160248201527f4552433732313a20617070726f76616c20746f2063757272656e74206f776e656044820152603960f91b60648201526084015b60405180910390fd5b336001600160a01b03821614806104f957506104f98133610317565b61056b5760405162461bcd60e51b815260206004820152603d60248201527f4552433732313a20617070726f76652063616c6c6572206973206e6f7420746f60448201527f6b656e206f776e6572206f7220617070726f76656420666f7220616c6c00000060648201526084016104d4565b6105758383610c56565b505050565b60ca546000906001600160a01b031633146105a75760405162461bcd60e51b81526004016104d490611aa4565b5060c9546105b58582610cc4565b6105bf8482610c56565b600081815260cc602052604090206105d89084846114be565b506105e760c980546001019055565b949350505050565b6105f93382610e4f565b6106155760405162461bcd60e51b81526004016104d490611adb565b610575838383610ecd565b60cc602052600090815260409020805461063990611a6a565b80601f016020809104026020016040519081016040528092919081815260200182805461066590611a6a565b80156106b25780601f10610687576101008083540402835291602001916106b2565b820191906000526020600020905b81548152906001019060200180831161069557829003601f168201915b505050505081565b61057583838360405180602001604052806000815250610b59565b60ca546001600160a01b031633146106ff5760405162461bcd60e51b81526004016104d490611aa4565b6000818152606760205260409020546001600160a01b0316331461075e5760405162461bcd60e51b815260206004820152601660248201527521b7b63632b1ba34b7b71d1027a7262cafa7aba722a960511b60448201526064016104d4565b61076781611031565b50565b600054610100900460ff161580801561078a5750600054600160ff909116105b806107a45750303b1580156107a4575060005460ff166001145b6108075760405162461bcd60e51b815260206004820152602e60248201527f496e697469616c697a61626c653a20636f6e747261637420697320616c72656160448201526d191e481a5b9a5d1a585b1a5e995960921b60648201526084016104d4565b6000805460ff19166001179055801561082a576000805461ff0019166101001790555b60ca546001600160a01b0316156108835760405162461bcd60e51b815260206004820152601b60248201527f436f6c6c656374696f6e3a204f4e4c595f494e495449414c495a45000000000060448201526064016104d4565b60ca80546001600160a01b0319166001600160a01b038a16179055604080516020601f890181900481028201810190925287815261090f91899089908190840183828082843760009201919091525050604080516020601f8b0181900481028201810190925289815292508991508890819084018382808284376000920191909152506110c692505050565b61091b60cb84846114be565b508015610962576000805461ff0019169055604051600181527f7f26b83ff96e1f2b6a682f133852f6798a09c465da95921460cefb38474024989060200160405180910390a15b5050505050505050565b6000818152606760205260408120546001600160a01b0316806103a15760405162461bcd60e51b8152602060048201526018602482015277115490cdcc8c4e881a5b9d985b1a59081d1bdad95b88125160421b60448201526064016104d4565b60cb805461063990611a6a565b60006001600160a01b038216610a435760405162461bcd60e51b815260206004820152602960248201527f4552433732313a2061646472657373207a65726f206973206e6f7420612076616044820152683634b21037bbb732b960b91b60648201526084016104d4565b506001600160a01b031660009081526068602052604090205490565b60ca546001600160a01b03163314610a895760405162461bcd60e51b81526004016104d490611aa4565b7f309b29ded109b9e28fb9885757b3e0096eb75c51d23aa4635d68bcd569f6adc160cb8383604051610abd93929190611b51565b60405180910390a161057560cb83836114be565b6060606680546103b690611a6a565b610aeb3383836110f7565b5050565b60ca546000906001600160a01b03163314610b1c5760405162461bcd60e51b81526004016104d490611aa4565b5060c954610b2a8482610cc4565b600081815260cc60205260409020610b439084846114be565b50610b5260c980546001019055565b9392505050565b610b633383610e4f565b610b7f5760405162461bcd60e51b81526004016104d490611adb565b610b8b848484846111c5565b50505050565b6060610b9c82610bf7565b6000610ba66111f8565b90506000815111610bc65760405180602001604052806000815250610b52565b80610bd084611207565b604051602001610be1929190611c0e565b6040516020818303038152906040529392505050565b6000818152606760205260409020546001600160a01b03166107675760405162461bcd60e51b8152602060048201526018602482015277115490cdcc8c4e881a5b9d985b1a59081d1bdad95b88125160421b60448201526064016104d4565b600081815260696020526040902080546001600160a01b0319166001600160a01b0384169081179091558190610c8b8261096c565b6001600160a01b03167f8c5be1e5ebec7d5bd14f71427d1e84f3dd0314c0f7b2291e5b200ac8c7c3b92560405160405180910390a45050565b6001600160a01b038216610d1a5760405162461bcd60e51b815260206004820181905260248201527f4552433732313a206d696e7420746f20746865207a65726f206164647265737360448201526064016104d4565b6000818152606760205260409020546001600160a01b031615610d7f5760405162461bcd60e51b815260206004820152601c60248201527f4552433732313a20746f6b656e20616c7265616479206d696e7465640000000060448201526064016104d4565b6000818152606760205260409020546001600160a01b031615610de45760405162461bcd60e51b815260206004820152601c60248201527f4552433732313a20746f6b656e20616c7265616479206d696e7465640000000060448201526064016104d4565b6001600160a01b038216600081815260686020908152604080832080546001019055848352606790915280822080546001600160a01b0319168417905551839291907fddf252ad1be2c89b69c2b068fc378daa952ba7f163c4a11628f55a4df523b3ef908290a45050565b600080610e5b8361096c565b9050806001600160a01b0316846001600160a01b03161480610ea257506001600160a01b038082166000908152606a602090815260408083209388168352929052205460ff165b806105e75750836001600160a01b0316610ebb84610439565b6001600160a01b031614949350505050565b826001600160a01b0316610ee08261096c565b6001600160a01b031614610f065760405162461bcd60e51b81526004016104d490611c3d565b6001600160a01b038216610f685760405162461bcd60e51b8152602060048201526024808201527f4552433732313a207472616e7366657220746f20746865207a65726f206164646044820152637265737360e01b60648201526084016104d4565b826001600160a01b0316610f7b8261096c565b6001600160a01b031614610fa15760405162461bcd60e51b81526004016104d490611c3d565b600081815260696020908152604080832080546001600160a01b03199081169091556001600160a01b0387811680865260688552838620805460001901905590871680865283862080546001019055868652606790945282852080549092168417909155905184937fddf252ad1be2c89b69c2b068fc378daa952ba7f163c4a11628f55a4df523b3ef91a4505050565b600061103c8261096c565b90506110478261096c565b600083815260696020908152604080832080546001600160a01b03199081169091556001600160a01b0385168085526068845282852080546000190190558785526067909352818420805490911690555192935084927fddf252ad1be2c89b69c2b068fc378daa952ba7f163c4a11628f55a4df523b3ef908390a45050565b600054610100900460ff166110ed5760405162461bcd60e51b81526004016104d490611c82565b610aeb828261129a565b816001600160a01b0316836001600160a01b0316036111585760405162461bcd60e51b815260206004820152601960248201527f4552433732313a20617070726f766520746f2063616c6c65720000000000000060448201526064016104d4565b6001600160a01b038381166000818152606a6020908152604080832094871680845294825291829020805460ff191686151590811790915591519182527f17307eab39ab6107e8899845ad3d59bd9653f200f220920489ca2b5937696c31910160405180910390a3505050565b6111d0848484610ecd565b6111dc848484846112e8565b610b8b5760405162461bcd60e51b81526004016104d490611ccd565b606060cb80546103b690611a6a565b60606000611214836113e6565b600101905060008167ffffffffffffffff81111561123457611234611945565b6040519080825280601f01601f19166020018201604052801561125e576020820181803683370190505b5090508181016020015b600019016f181899199a1a9b1b9c1cb0b131b232b360811b600a86061a8153600a850494508461126857509392505050565b600054610100900460ff166112c15760405162461bcd60e51b81526004016104d490611c82565b81516112d4906065906020850190611542565b508051610575906066906020840190611542565b60006001600160a01b0384163b156113de57604051630a85bd0160e11b81526001600160a01b0385169063150b7a029061132c903390899088908890600401611d1f565b6020604051808303816000875af1925050508015611367575060408051601f3d908101601f1916820190925261136491810190611d52565b60015b6113c4573d808015611395576040519150601f19603f3d011682016040523d82523d6000602084013e61139a565b606091505b5080516000036113bc5760405162461bcd60e51b81526004016104d490611ccd565b805181602001fd5b6001600160e01b031916630a85bd0160e11b1490506105e7565b5060016105e7565b60008072184f03e93ff9f4daa797ed6e38ed64bf6a1f0160401b83106114255772184f03e93ff9f4daa797ed6e38ed64bf6a1f0160401b830492506040015b6d04ee2d6d415b85acef81000000008310611451576d04ee2d6d415b85acef8100000000830492506020015b662386f26fc10000831061146f57662386f26fc10000830492506010015b6305f5e1008310611487576305f5e100830492506008015b612710831061149b57612710830492506004015b606483106114ad576064830492506002015b600a83106103a15760010192915050565b8280546114ca90611a6a565b90600052602060002090601f0160209004810192826114ec5760008555611532565b82601f106115055782800160ff19823516178555611532565b82800160010185558215611532579182015b82811115611532578235825591602001919060010190611517565b5061153e9291506115b6565b5090565b82805461154e90611a6a565b90600052602060002090601f0160209004810192826115705760008555611532565b82601f1061158957805160ff1916838001178555611532565b82800160010185558215611532579182015b8281111561153257825182559160200191906001019061159b565b5b8082111561153e57600081556001016115b7565b6001600160e01b03198116811461076757600080fd5b6000602082840312156115f357600080fd5b8135610b52816115cb565b60005b83811015611619578181015183820152602001611601565b83811115610b8b5750506000910152565b600081518084526116428160208601602086016115fe565b601f01601f19169290920160200192915050565b602081526000610b52602083018461162a565b60006020828403121561167b57600080fd5b5035919050565b80356001600160a01b038116811461169957600080fd5b919050565b600080604083850312156116b157600080fd5b6116ba83611682565b946020939093013593505050565b60008083601f8401126116da57600080fd5b50813567ffffffffffffffff8111156116f257600080fd5b60208301915083602082850101111561170a57600080fd5b9250929050565b6000806000806060858703121561172757600080fd5b61173085611682565b935061173e60208601611682565b9250604085013567ffffffffffffffff81111561175a57600080fd5b611766878288016116c8565b95989497509550505050565b60008060006060848603121561178757600080fd5b61179084611682565b925061179e60208501611682565b9150604084013590509250925092565b60008060008060008060006080888a0312156117c957600080fd5b6117d288611682565b9650602088013567ffffffffffffffff808211156117ef57600080fd5b6117fb8b838c016116c8565b909850965060408a013591508082111561181457600080fd5b6118208b838c016116c8565b909650945060608a013591508082111561183957600080fd5b506118468a828b016116c8565b989b979a50959850939692959293505050565b60006020828403121561186b57600080fd5b610b5282611682565b6000806020838503121561188757600080fd5b823567ffffffffffffffff81111561189e57600080fd5b6118aa858286016116c8565b90969095509350505050565b600080604083850312156118c957600080fd5b6118d283611682565b9150602083013580151581146118e757600080fd5b809150509250929050565b60008060006040848603121561190757600080fd5b61191084611682565b9250602084013567ffffffffffffffff81111561192c57600080fd5b611938868287016116c8565b9497909650939450505050565b634e487b7160e01b600052604160045260246000fd5b6000806000806080858703121561197157600080fd5b61197a85611682565b935061198860208601611682565b925060408501359150606085013567ffffffffffffffff808211156119ac57600080fd5b818701915087601f8301126119c057600080fd5b8135818111156119d2576119d2611945565b604051601f8201601f19908116603f011681019083821181831017156119fa576119fa611945565b816040528281528a6020848701011115611a1357600080fd5b82602086016020830137600060208483010152809550505050505092959194509250565b60008060408385031215611a4a57600080fd5b611a5383611682565b9150611a6160208401611682565b90509250929050565b600181811c90821680611a7e57607f821691505b602082108103611a9e57634e487b7160e01b600052602260045260246000fd5b50919050565b60208082526018908201527f436f6c6c656374696f6e3a204f4e4c595f43524541544f520000000000000000604082015260600190565b6020808252602d908201527f4552433732313a2063616c6c6572206973206e6f7420746f6b656e206f776e6560408201526c1c881bdc88185c1c1c9bdd9959609a1b606082015260800190565b81835281816020850137506000828201602090810191909152601f909101601f19169091010190565b60408152600080855481600182811c915080831680611b7157607f831692505b60208084108203611b9057634e487b7160e01b86526022600452602486fd5b6040880184905260608801828015611baf5760018114611bc057611beb565b60ff19871682528282019750611beb565b60008d81526020902060005b87811015611be557815484820152908601908401611bcc565b83019850505b5050878603818901525050505050611c04818587611b28565b9695505050505050565b60008351611c208184602088016115fe565b835190830190611c348183602088016115fe565b01949350505050565b60208082526025908201527f4552433732313a207472616e736665722066726f6d20696e636f72726563742060408201526437bbb732b960d91b606082015260800190565b6020808252602b908201527f496e697469616c697a61626c653a20636f6e7472616374206973206e6f74206960408201526a6e697469616c697a696e6760a81b606082015260800190565b60208082526032908201527f4552433732313a207472616e7366657220746f206e6f6e20455243373231526560408201527131b2b4bb32b91034b6b83632b6b2b73a32b960711b606082015260800190565b6001600160a01b0385811682528416602082015260408101839052608060608201819052600090611c049083018461162a565b600060208284031215611d6457600080fd5b8151610b52816115cb56fea2646970667358221220098cf7053f76f040363615ee731e74af85b1670a70fea7fdb9975adb7ee03ae864736f6c634300080d0033",
  "linkReferences": {},
  "deployedLinkReferences": {}
}