{
  "_format": "hh-sol-artifact-1",
  "contractName": "CollectionFactory",
  "sourceName": "contracts/nft/CollectionFactory.sol",
  "abi": [
    {
      "inputs": [
        {
          "internalType": "contract IControlCenter",
          "name": "_controlCenter",
          "type": "address"
        },
        {
          "internalType": "address",
          "name": "_collectionImplementation",
          "type": "address"
        }
      ],
      "stateMutability": "nonpayable",
      "type": "constructor"
    },
    {
      "anonymous": false,
      "inputs": [
        {
          "indexed": true,
          "internalType": "address",
          "name": "collection",
          "type": "address"
        },
        {
          "indexed": true,
          "internalType": "address",
          "name": "creator",
          "type": "address"
        },
        {
          "indexed": false,
          "internalType": "string",
          "name": "name",
          "type": "string"
        },
        {
          "indexed": false,
          "internalType": "string",
          "name": "symbol",
          "type": "string"
        }
      ],
      "name": "CollectionCreated",
      "type": "event"
    },
    {
      "anonymous": false,
      "inputs": [
        {
          "indexed": false,
          "internalType": "address",
          "name": "account",
          "type": "address"
        }
      ],
      "name": "Paused",
      "type": "event"
    },
    {
      "anonymous": false,
      "inputs": [
        {
          "indexed": false,
          "internalType": "address",
          "name": "account",
          "type": "address"
        }
      ],
      "name": "Unpaused",
      "type": "event"
    },
    {
      "inputs": [],
      "name": "collectionImplementation",
      "outputs": [
        {
          "internalType": "address",
          "name": "",
          "type": "address"
        }
      ],
      "stateMutability": "view",
      "type": "function"
    },
    {
      "inputs": [],
      "name": "controlCenter",
      "outputs": [
        {
          "internalType": "contract IControlCenter",
          "name": "",
          "type": "address"
        }
      ],
      "stateMutability": "view",
      "type": "function"
    },
    {
      "inputs": [
        {
          "internalType": "address",
          "name": "creator",
          "type": "address"
        },
        {
          "internalType": "string",
          "name": "name",
          "type": "string"
        },
        {
          "internalType": "string",
          "name": "symbol",
          "type": "string"
        },
        {
          "internalType": "string",
          "name": "baseURI",
          "type": "string"
        }
      ],
      "name": "createCollection",
      "outputs": [
        {
          "internalType": "address",
          "name": "collection",
          "type": "address"
        }
      ],
      "stateMutability": "nonpayable",
      "type": "function"
    },
    {
      "inputs": [],
      "name": "pause",
      "outputs": [],
      "stateMutability": "nonpayable",
      "type": "function"
    },
    {
      "inputs": [],
      "name": "paused",
      "outputs": [
        {
          "internalType": "bool",
          "name": "",
          "type": "bool"
        }
      ],
      "stateMutability": "view",
      "type": "function"
    },
    {
      "inputs": [],
      "name": "unpause",
      "outputs": [],
      "stateMutability": "nonpayable",
      "type": "function"
    }
  ],
  "bytecode": "0x60c060405234801561001057600080fd5b506040516107a53803806107a583398101604081905261002f91610068565b6000805460ff191690556001600160a01b039182166080521660a0526100a2565b6001600160a01b038116811461006557600080fd5b50565b6000806040838503121561007b57600080fd5b825161008681610050565b602084015190925061009781610050565b809150509250929050565b60805160a0516106cb6100da60003960008181606c015261018c01526000818160eb015281816102a9015261033a01526106cb6000f3fe608060405234801561001057600080fd5b50600436106100625760003560e01c80630f3b901f146100675780633df17453146100ab5780633f4ba83a146100be5780635c975abb146100c85780638456cb59146100de578063fee1f775146100e6575b600080fd5b61008e7f000000000000000000000000000000000000000000000000000000000000000081565b6040516001600160a01b0390911681526020015b60405180910390f35b61008e6100b9366004610526565b61010d565b6100c661029f565b005b60005460ff1660405190151581526020016100a2565b6100c6610330565b61008e7f000000000000000000000000000000000000000000000000000000000000000081565b60006101176103bf565b600084900361016d5760405162461bcd60e51b815260206004820152601f60248201527f436f6c6c656374696f6e466163746f72793a20454d5054595f53594d424f4c0060448201526064015b60405180910390fd5b604051733d602d80600a3d3981f3363d3d373d3d3d363d7360601b81527f000000000000000000000000000000000000000000000000000000000000000060601b601482018190526e5af43d82803e903d91602b57fd5bf360881b6028830152906037816000f0604051635f1e6f6d60e01b81529093506001600160a01b0384169150635f1e6f6d90610210908c908c908c908c908c908c908c90600401610608565b600060405180830381600087803b15801561022a57600080fd5b505af115801561023e573d6000803e3d6000fd5b50505050886001600160a01b0316826001600160a01b03167f5fead977881b23a0dbf2f905699203f29cefea57a576d2d4f412523191258e848a8a8a8a60405161028b9493929190610663565b60405180910390a350979650505050505050565b6001600160a01b037f0000000000000000000000000000000000000000000000000000000000000000166313aeefdc336040516001600160e01b031960e084901b1681526001600160a01b03909116600482015260240160006040518083038186803b15801561030e57600080fd5b505afa158015610322573d6000803e3d6000fd5b5050505061032e610405565b565b6001600160a01b037f0000000000000000000000000000000000000000000000000000000000000000166313aeefdc336040516001600160e01b031960e084901b1681526001600160a01b03909116600482015260240160006040518083038186803b15801561039f57600080fd5b505afa1580156103b3573d6000803e3d6000fd5b5050505061032e610457565b60005460ff161561032e5760405162461bcd60e51b815260206004820152601060248201526f14185d5cd8589b194e881c185d5cd95960821b6044820152606401610164565b61040d610494565b6000805460ff191690557f5db9ee0a495bf2e6ff9c91a7834c1ba4fdd244a5e8aa4e537bd38aeae4b073aa335b6040516001600160a01b03909116815260200160405180910390a1565b61045f6103bf565b6000805460ff191660011790557f62e78cea01bee320cd4e420270b5ea74000d11b0c9f74754ebdbfc544b05a25861043a3390565b60005460ff1661032e5760405162461bcd60e51b815260206004820152601460248201527314185d5cd8589b194e881b9bdd081c185d5cd95960621b6044820152606401610164565b60008083601f8401126104ef57600080fd5b50813567ffffffffffffffff81111561050757600080fd5b60208301915083602082850101111561051f57600080fd5b9250929050565b60008060008060008060006080888a03121561054157600080fd5b87356001600160a01b038116811461055857600080fd5b9650602088013567ffffffffffffffff8082111561057557600080fd5b6105818b838c016104dd565b909850965060408a013591508082111561059a57600080fd5b6105a68b838c016104dd565b909650945060608a01359150808211156105bf57600080fd5b506105cc8a828b016104dd565b989b979a50959850939692959293505050565b81835281816020850137506000828201602090810191909152601f909101601f19169091010190565b6001600160a01b038816815260806020820181905260009061062d908301888a6105df565b82810360408401526106408187896105df565b905082810360608401526106558185876105df565b9a9950505050505050505050565b6040815260006106776040830186886105df565b828103602084015261068a8185876105df565b97965050505050505056fea2646970667358221220b4f8bebab1f9e3e19d6de8ba3a6bff79d561450bb68922d96e2f5bd4b2163c5e64736f6c634300080d0033",
  "linkReferences": {},
  "deployedLinkReferences": {}
}