{
  "_format": "hh-sol-artifact-1",
  "contractName": "Shared",
  "sourceName": "contracts/nft/Shared.sol",
  "abi": [
    {
      "inputs": [
        {
          "internalType": "contract IControlCenter",
          "name": "_controlCenter",
          "type": "address"
        }
      ],
      "stateMutability": "nonpayable",
      "type": "constructor"
    },
    {
      "anonymous": false,
      "inputs": [
        {
          "indexed": true,
          "internalType": "address",
          "name": "owner",
          "type": "address"
        },
        {
          "indexed": true,
          "internalType": "address",
          "name": "approved",
          "type": "address"
        },
        {
          "indexed": true,
          "internalType": "uint256",
          "name": "tokenId",
          "type": "uint256"
        }
      ],
      "name": "Approval",
      "type": "event"
    },
    {
      "anonymous": false,
      "inputs": [
        {
          "indexed": true,
          "internalType": "address",
          "name": "owner",
          "type": "address"
        },
        {
          "indexed": true,
          "internalType": "address",
          "name": "operator",
          "type": "address"
        },
        {
          "indexed": false,
          "internalType": "bool",
          "name": "approved",
          "type": "bool"
        }
      ],
      "name": "ApprovalForAll",
      "type": "event"
    },
    {
      "anonymous": false,
      "inputs": [
        {
          "indexed": false,
          "internalType": "string",
          "name": "oldBaseURI",
          "type": "string"
        },
        {
          "indexed": false,
          "internalType": "string",
          "name": "newBaseURI",
          "type": "string"
        }
      ],
      "name": "BaseURIUpdated",
      "type": "event"
    },
    {
      "anonymous": false,
      "inputs": [
        {
          "indexed": false,
          "internalType": "address",
          "name": "account",
          "type": "address"
        }
      ],
      "name": "Paused",
      "type": "event"
    },
    {
      "anonymous": false,
      "inputs": [
        {
          "indexed": true,
          "internalType": "address",
          "name": "from",
          "type": "address"
        },
        {
          "indexed": true,
          "internalType": "address",
          "name": "to",
          "type": "address"
        },
        {
          "indexed": true,
          "internalType": "uint256",
          "name": "tokenId",
          "type": "uint256"
        }
      ],
      "name": "Transfer",
      "type": "event"
    },
    {
      "anonymous": false,
      "inputs": [
        {
          "indexed": false,
          "internalType": "address",
          "name": "account",
          "type": "address"
        }
      ],
      "name": "Unpaused",
      "type": "event"
    },
    {
      "inputs": [
        {
          "internalType": "address",
          "name": "to",
          "type": "address"
        },
        {
          "internalType": "uint256",
          "name": "tokenId",
          "type": "uint256"
        }
      ],
      "name": "approve",
      "outputs": [],
      "stateMutability": "nonpayable",
      "type": "function"
    },
    {
      "inputs": [
        {
          "internalType": "address",
          "name": "owner",
          "type": "address"
        }
      ],
      "name": "balanceOf",
      "outputs": [
        {
          "internalType": "uint256",
          "name": "",
          "type": "uint256"
        }
      ],
      "stateMutability": "view",
      "type": "function"
    },
    {
      "inputs": [],
      "name": "baseURI",
      "outputs": [
        {
          "internalType": "string",
          "name": "",
          "type": "string"
        }
      ],
      "stateMutability": "view",
      "type": "function"
    },
    {
      "inputs": [
        {
          "internalType": "uint256",
          "name": "tokenId",
          "type": "uint256"
        }
      ],
      "name": "burn",
      "outputs": [],
      "stateMutability": "nonpayable",
      "type": "function"
    },
    {
      "inputs": [],
      "name": "controlCenter",
      "outputs": [
        {
          "internalType": "contract IControlCenter",
          "name": "",
          "type": "address"
        }
      ],
      "stateMutability": "view",
      "type": "function"
    },
    {
      "inputs": [],
      "name": "currentTokenId",
      "outputs": [
        {
          "internalType": "uint256",
          "name": "",
          "type": "uint256"
        }
      ],
      "stateMutability": "view",
      "type": "function"
    },
    {
      "inputs": [
        {
          "internalType": "uint256",
          "name": "tokenId",
          "type": "uint256"
        }
      ],
      "name": "getApproved",
      "outputs": [
        {
          "internalType": "address",
          "name": "",
          "type": "address"
        }
      ],
      "stateMutability": "view",
      "type": "function"
    },
    {
      "inputs": [
        {
          "internalType": "uint256",
          "name": "",
          "type": "uint256"
        }
      ],
      "name": "hashedMetadata",
      "outputs": [
        {
          "internalType": "bytes",
          "name": "",
          "type": "bytes"
        }
      ],
      "stateMutability": "view",
      "type": "function"
    },
    {
      "inputs": [
        {
          "internalType": "address",
          "name": "owner",
          "type": "address"
        },
        {
          "internalType": "address",
          "name": "operator",
          "type": "address"
        }
      ],
      "name": "isApprovedForAll",
      "outputs": [
        {
          "internalType": "bool",
          "name": "",
          "type": "bool"
        }
      ],
      "stateMutability": "view",
      "type": "function"
    },
    {
      "inputs": [
        {
          "internalType": "address",
          "name": "to",
          "type": "address"
        },
        {
          "internalType": "bytes",
          "name": "_hashedMetadata",
          "type": "bytes"
        }
      ],
      "name": "mint",
      "outputs": [
        {
          "internalType": "uint256",
          "name": "tokenId",
          "type": "uint256"
        }
      ],
      "stateMutability": "nonpayable",
      "type": "function"
    },
    {
      "inputs": [
        {
          "internalType": "address",
          "name": "to",
          "type": "address"
        },
        {
          "internalType": "address",
          "name": "operator",
          "type": "address"
        },
        {
          "internalType": "bytes",
          "name": "_hashedMetadata",
          "type": "bytes"
        }
      ],
      "name": "mintAndApprove",
      "outputs": [
        {
          "internalType": "uint256",
          "name": "tokenId",
          "type": "uint256"
        }
      ],
      "stateMutability": "nonpayable",
      "type": "function"
    },
    {
      "inputs": [],
      "name": "name",
      "outputs": [
        {
          "internalType": "string",
          "name": "",
          "type": "string"
        }
      ],
      "stateMutability": "view",
      "type": "function"
    },
    {
      "inputs": [
        {
          "internalType": "uint256",
          "name": "tokenId",
          "type": "uint256"
        }
      ],
      "name": "ownerOf",
      "outputs": [
        {
          "internalType": "address",
          "name": "",
          "type": "address"
        }
      ],
      "stateMutability": "view",
      "type": "function"
    },
    {
      "inputs": [],
      "name": "pause",
      "outputs": [],
      "stateMutability": "nonpayable",
      "type": "function"
    },
    {
      "inputs": [],
      "name": "paused",
      "outputs": [
        {
          "internalType": "bool",
          "name": "",
          "type": "bool"
        }
      ],
      "stateMutability": "view",
      "type": "function"
    },
    {
      "inputs": [
        {
          "internalType": "address",
          "name": "from",
          "type": "address"
        },
        {
          "internalType": "address",
          "name": "to",
          "type": "address"
        },
        {
          "internalType": "uint256",
          "name": "tokenId",
          "type": "uint256"
        }
      ],
      "name": "safeTransferFrom",
      "outputs": [],
      "stateMutability": "nonpayable",
      "type": "function"
    },
    {
      "inputs": [
        {
          "internalType": "address",
          "name": "from",
          "type": "address"
        },
        {
          "internalType": "address",
          "name": "to",
          "type": "address"
        },
        {
          "internalType": "uint256",
          "name": "tokenId",
          "type": "uint256"
        },
        {
          "internalType": "bytes",
          "name": "data",
          "type": "bytes"
        }
      ],
      "name": "safeTransferFrom",
      "outputs": [],
      "stateMutability": "nonpayable",
      "type": "function"
    },
    {
      "inputs": [
        {
          "internalType": "address",
          "name": "operator",
          "type": "address"
        },
        {
          "internalType": "bool",
          "name": "approved",
          "type": "bool"
        }
      ],
      "name": "setApprovalForAll",
      "outputs": [],
      "stateMutability": "nonpayable",
      "type": "function"
    },
    {
      "inputs": [
        {
          "internalType": "bytes4",
          "name": "interfaceId",
          "type": "bytes4"
        }
      ],
      "name": "supportsInterface",
      "outputs": [
        {
          "internalType": "bool",
          "name": "",
          "type": "bool"
        }
      ],
      "stateMutability": "view",
      "type": "function"
    },
    {
      "inputs": [],
      "name": "symbol",
      "outputs": [
        {
          "internalType": "string",
          "name": "",
          "type": "string"
        }
      ],
      "stateMutability": "view",
      "type": "function"
    },
    {
      "inputs": [
        {
          "internalType": "uint256",
          "name": "tokenId",
          "type": "uint256"
        }
      ],
      "name": "tokenURI",
      "outputs": [
        {
          "internalType": "string",
          "name": "",
          "type": "string"
        }
      ],
      "stateMutability": "view",
      "type": "function"
    },
    {
      "inputs": [
        {
          "internalType": "address",
          "name": "from",
          "type": "address"
        },
        {
          "internalType": "address",
          "name": "to",
          "type": "address"
        },
        {
          "internalType": "uint256",
          "name": "tokenId",
          "type": "uint256"
        }
      ],
      "name": "transferFrom",
      "outputs": [],
      "stateMutability": "nonpayable",
      "type": "function"
    },
    {
      "inputs": [],
      "name": "unpause",
      "outputs": [],
      "stateMutability": "nonpayable",
      "type": "function"
    },
    {
      "inputs": [
        {
          "internalType": "string",
          "name": "newBaseURI",
          "type": "string"
        }
      ],
      "name": "updateBaseURI",
      "outputs": [],
      "stateMutability": "nonpayable",
      "type": "function"
    }
  ],
  "bytecode": "0x60a06040523480156200001157600080fd5b506040516200202738038062002027833981016040819052620000349162000171565b604080518082018252601381527f46696e656e74696320536861726564204e465400000000000000000000000000602080830191825283518085019094526005845264119e13919560da1b9084015281519192916200009691600091620000cb565b508051620000ac906001906020840190620000cb565b50506006805460ff19169055506001600160a01b0316608052620001df565b828054620000d990620001a3565b90600052602060002090601f016020900481019282620000fd576000855562000148565b82601f106200011857805160ff191683800117855562000148565b8280016001018555821562000148579182015b82811115620001485782518255916020019190600101906200012b565b50620001569291506200015a565b5090565b5b808211156200015657600081556001016200015b565b6000602082840312156200018457600080fd5b81516001600160a01b03811681146200019c57600080fd5b9392505050565b600181811c90821680620001b857607f821691505b602082108103620001d957634e487b7160e01b600052602260045260246000fd5b50919050565b608051611dfb6200022c6000396000818161033f015281816105a20152818161074301528181610949015281816109d801528181610ac70152818161137701526113ee0152611dfb6000f3fe608060405234801561001057600080fd5b50600436106101575760003560e01c80636352211e116100c3578063a22cb4651161007c578063a22cb465146102b2578063b510391f146102c5578063b88d4fde146102d8578063c87b56dd146102eb578063e985e9c5146102fe578063fee1f7751461033a57600080fd5b80636352211e146102615780636c0360eb1461027457806370a082311461027c5780638456cb591461028f578063931688cb1461029757806395d89b41146102aa57600080fd5b806323b872dd1161011557806323b872dd146102025780633b166f02146102155780633f4ba83a1461022857806342842e0e1461023057806342966c68146102435780635c975abb1461025657600080fd5b80629a9b7b1461015c57806301ffc9a71461017757806306fdde031461019a578063081812fc146101af578063095ea7b3146101da57806320035b30146101ef575b600080fd5b610164610361565b6040519081526020015b60405180910390f35b61018a610185366004611764565b610371565b604051901515815260200161016e565b6101a26103c3565b60405161016e91906117d9565b6101c26101bd3660046117ec565b610455565b6040516001600160a01b03909116815260200161016e565b6101ed6101e8366004611821565b61047c565b005b6101646101fd366004611894565b610596565b6101ed6102103660046118f5565b61066e565b6101a26102233660046117ec565b61069f565b6101ed610739565b6101ed61023e3660046118f5565b6107ca565b6101ed6102513660046117ec565b6107e5565b60065460ff1661018a565b6101c261026f3660046117ec565b61084c565b6101a26108ac565b61016461028a366004611931565b6108b9565b6101ed61093f565b6101ed6102a536600461194c565b6109ce565b6101a2610a9d565b6101ed6102c036600461198e565b610aac565b6101646102d33660046119ca565b610abb565b6101ed6102e6366004611a33565b610b88565b6101a26102f93660046117ec565b610bc0565b61018a61030c366004611b0f565b6001600160a01b03918216600090815260056020908152604080832093909416825291909152205460ff1690565b6101c27f000000000000000000000000000000000000000000000000000000000000000081565b600061036c60075490565b905090565b60006001600160e01b031982166380ac58cd60e01b14806103a257506001600160e01b03198216635b5e139f60e01b145b806103bd57506301ffc9a760e01b6001600160e01b03198316145b92915050565b6060600080546103d290611b42565b80601f01602080910402602001604051908101604052809291908181526020018280546103fe90611b42565b801561044b5780601f106104205761010080835404028352916020019161044b565b820191906000526020600020905b81548152906001019060200180831161042e57829003601f168201915b5050505050905090565b600061046082610c26565b506000908152600460205260409020546001600160a01b031690565b60006104878261084c565b9050806001600160a01b0316836001600160a01b0316036104f95760405162461bcd60e51b815260206004820152602160248201527f4552433732313a20617070726f76616c20746f2063757272656e74206f776e656044820152603960f91b60648201526084015b60405180910390fd5b336001600160a01b03821614806105155750610515813361030c565b6105875760405162461bcd60e51b815260206004820152603d60248201527f4552433732313a20617070726f76652063616c6c6572206973206e6f7420746f60448201527f6b656e206f776e6572206f7220617070726f76656420666f7220616c6c00000060648201526084016104f0565b6105918383610c85565b505050565b60006001600160a01b037f00000000000000000000000000000000000000000000000000000000000000001663cbd89c28336040516001600160e01b031960e084901b1681526001600160a01b03909116600482015260240160006040518083038186803b15801561060757600080fd5b505afa15801561061b573d6000803e3d6000fd5b5050505061062860075490565b90506106348582610cf3565b61063e8482610c85565b60008181526009602052604090206106579084846116b5565b50610666600780546001019055565b949350505050565b6106783382610e8c565b6106945760405162461bcd60e51b81526004016104f090611b7c565b610591838383610f0a565b600960205260009081526040902080546106b890611b42565b80601f01602080910402602001604051908101604052809291908181526020018280546106e490611b42565b80156107315780601f1061070657610100808354040283529160200191610731565b820191906000526020600020905b81548152906001019060200180831161071457829003601f168201915b505050505081565b6001600160a01b037f0000000000000000000000000000000000000000000000000000000000000000166313aeefdc336040516001600160e01b031960e084901b1681526001600160a01b03909116600482015260240160006040518083038186803b1580156107a857600080fd5b505afa1580156107bc573d6000803e3d6000fd5b505050506107c861107b565b565b61059183838360405180602001604052806000815250610b88565b6000818152600260205260409020546001600160a01b031633146108405760405162461bcd60e51b815260206004820152601260248201527129b430b932b21d1027a7262cafa7aba722a960711b60448201526064016104f0565b610849816110cd565b50565b6000818152600260205260408120546001600160a01b0316806103bd5760405162461bcd60e51b8152602060048201526018602482015277115490cdcc8c4e881a5b9d985b1a59081d1bdad95b88125160421b60448201526064016104f0565b600880546106b890611b42565b60006001600160a01b0382166109235760405162461bcd60e51b815260206004820152602960248201527f4552433732313a2061646472657373207a65726f206973206e6f7420612076616044820152683634b21037bbb732b960b91b60648201526084016104f0565b506001600160a01b031660009081526003602052604090205490565b6001600160a01b037f0000000000000000000000000000000000000000000000000000000000000000166313aeefdc336040516001600160e01b031960e084901b1681526001600160a01b03909116600482015260240160006040518083038186803b1580156109ae57600080fd5b505afa1580156109c2573d6000803e3d6000fd5b505050506107c8611170565b6001600160a01b037f0000000000000000000000000000000000000000000000000000000000000000166313aeefdc336040516001600160e01b031960e084901b1681526001600160a01b03909116600482015260240160006040518083038186803b158015610a3d57600080fd5b505afa158015610a51573d6000803e3d6000fd5b505050507f309b29ded109b9e28fb9885757b3e0096eb75c51d23aa4635d68bcd569f6adc160088383604051610a8993929190611bf2565b60405180910390a1610591600883836116b5565b6060600180546103d290611b42565b610ab73383836111ad565b5050565b60006001600160a01b037f00000000000000000000000000000000000000000000000000000000000000001663cbd89c28336040516001600160e01b031960e084901b1681526001600160a01b03909116600482015260240160006040518083038186803b158015610b2c57600080fd5b505afa158015610b40573d6000803e3d6000fd5b50505050610b4d60075490565b9050610b598482610cf3565b6000818152600960205260409020610b729084846116b5565b50610b81600780546001019055565b9392505050565b610b923383610e8c565b610bae5760405162461bcd60e51b81526004016104f090611b7c565b610bba8484848461127b565b50505050565b6060610bcb82610c26565b6000610bd56112ae565b90506000815111610bf55760405180602001604052806000815250610b81565b80610bff846112bd565b604051602001610c10929190611caf565b6040516020818303038152906040529392505050565b6000818152600260205260409020546001600160a01b03166108495760405162461bcd60e51b8152602060048201526018602482015277115490cdcc8c4e881a5b9d985b1a59081d1bdad95b88125160421b60448201526064016104f0565b600081815260046020526040902080546001600160a01b0319166001600160a01b0384169081179091558190610cba8261084c565b6001600160a01b03167f8c5be1e5ebec7d5bd14f71427d1e84f3dd0314c0f7b2291e5b200ac8c7c3b92560405160405180910390a45050565b6001600160a01b038216610d495760405162461bcd60e51b815260206004820181905260248201527f4552433732313a206d696e7420746f20746865207a65726f206164647265737360448201526064016104f0565b6000818152600260205260409020546001600160a01b031615610dae5760405162461bcd60e51b815260206004820152601c60248201527f4552433732313a20746f6b656e20616c7265616479206d696e7465640000000060448201526064016104f0565b610dbc600083836001611350565b6000818152600260205260409020546001600160a01b031615610e215760405162461bcd60e51b815260206004820152601c60248201527f4552433732313a20746f6b656e20616c7265616479206d696e7465640000000060448201526064016104f0565b6001600160a01b038216600081815260036020908152604080832080546001019055848352600290915280822080546001600160a01b0319168417905551839291907fddf252ad1be2c89b69c2b068fc378daa952ba7f163c4a11628f55a4df523b3ef908290a45050565b600080610e988361084c565b9050806001600160a01b0316846001600160a01b03161480610edf57506001600160a01b0380821660009081526005602090815260408083209388168352929052205460ff165b806106665750836001600160a01b0316610ef884610455565b6001600160a01b031614949350505050565b826001600160a01b0316610f1d8261084c565b6001600160a01b031614610f435760405162461bcd60e51b81526004016104f090611cde565b6001600160a01b038216610fa55760405162461bcd60e51b8152602060048201526024808201527f4552433732313a207472616e7366657220746f20746865207a65726f206164646044820152637265737360e01b60648201526084016104f0565b610fb28383836001611350565b826001600160a01b0316610fc58261084c565b6001600160a01b031614610feb5760405162461bcd60e51b81526004016104f090611cde565b600081815260046020908152604080832080546001600160a01b03199081169091556001600160a01b0387811680865260038552838620805460001901905590871680865283862080546001019055868652600290945282852080549092168417909155905184937fddf252ad1be2c89b69c2b068fc378daa952ba7f163c4a11628f55a4df523b3ef91a4505050565b611083611450565b6006805460ff191690557f5db9ee0a495bf2e6ff9c91a7834c1ba4fdd244a5e8aa4e537bd38aeae4b073aa335b6040516001600160a01b03909116815260200160405180910390a1565b60006110d88261084c565b90506110e8816000846001611350565b6110f18261084c565b600083815260046020908152604080832080546001600160a01b03199081169091556001600160a01b0385168085526003845282852080546000190190558785526002909352818420805490911690555192935084927fddf252ad1be2c89b69c2b068fc378daa952ba7f163c4a11628f55a4df523b3ef908390a45050565b611178611499565b6006805460ff191660011790557f62e78cea01bee320cd4e420270b5ea74000d11b0c9f74754ebdbfc544b05a2586110b03390565b816001600160a01b0316836001600160a01b03160361120e5760405162461bcd60e51b815260206004820152601960248201527f4552433732313a20617070726f766520746f2063616c6c65720000000000000060448201526064016104f0565b6001600160a01b03838116600081815260056020908152604080832094871680845294825291829020805460ff191686151590811790915591519182527f17307eab39ab6107e8899845ad3d59bd9653f200f220920489ca2b5937696c31910160405180910390a3505050565b611286848484610f0a565b611292848484846114df565b610bba5760405162461bcd60e51b81526004016104f090611d23565b6060600880546103d290611b42565b606060006112ca836115dd565b600101905060008167ffffffffffffffff8111156112ea576112ea611a1d565b6040519080825280601f01601f191660200182016040528015611314576020820181803683370190505b5090508181016020015b600019016f181899199a1a9b1b9c1cb0b131b232b360811b600a86061a8153600a850494508461131e57509392505050565b611358611499565b60405163197b138560e31b81526001600160a01b0385811660048301527f0000000000000000000000000000000000000000000000000000000000000000169063cbd89c289060240160006040518083038186803b1580156113b957600080fd5b505afa1580156113cd573d6000803e3d6000fd5b505060405163197b138560e31b81526001600160a01b0386811660048301527f000000000000000000000000000000000000000000000000000000000000000016925063cbd89c28915060240160006040518083038186803b15801561143257600080fd5b505afa158015611446573d6000803e3d6000fd5b5050505050505050565b60065460ff166107c85760405162461bcd60e51b815260206004820152601460248201527314185d5cd8589b194e881b9bdd081c185d5cd95960621b60448201526064016104f0565b60065460ff16156107c85760405162461bcd60e51b815260206004820152601060248201526f14185d5cd8589b194e881c185d5cd95960821b60448201526064016104f0565b60006001600160a01b0384163b156115d557604051630a85bd0160e11b81526001600160a01b0385169063150b7a0290611523903390899088908890600401611d75565b6020604051808303816000875af192505050801561155e575060408051601f3d908101601f1916820190925261155b91810190611da8565b60015b6115bb573d80801561158c576040519150601f19603f3d011682016040523d82523d6000602084013e611591565b606091505b5080516000036115b35760405162461bcd60e51b81526004016104f090611d23565b805181602001fd5b6001600160e01b031916630a85bd0160e11b149050610666565b506001610666565b60008072184f03e93ff9f4daa797ed6e38ed64bf6a1f0160401b831061161c5772184f03e93ff9f4daa797ed6e38ed64bf6a1f0160401b830492506040015b6d04ee2d6d415b85acef81000000008310611648576d04ee2d6d415b85acef8100000000830492506020015b662386f26fc10000831061166657662386f26fc10000830492506010015b6305f5e100831061167e576305f5e100830492506008015b612710831061169257612710830492506004015b606483106116a4576064830492506002015b600a83106103bd5760010192915050565b8280546116c190611b42565b90600052602060002090601f0160209004810192826116e35760008555611729565b82601f106116fc5782800160ff19823516178555611729565b82800160010185558215611729579182015b8281111561172957823582559160200191906001019061170e565b50611735929150611739565b5090565b5b80821115611735576000815560010161173a565b6001600160e01b03198116811461084957600080fd5b60006020828403121561177657600080fd5b8135610b818161174e565b60005b8381101561179c578181015183820152602001611784565b83811115610bba5750506000910152565b600081518084526117c5816020860160208601611781565b601f01601f19169290920160200192915050565b602081526000610b8160208301846117ad565b6000602082840312156117fe57600080fd5b5035919050565b80356001600160a01b038116811461181c57600080fd5b919050565b6000806040838503121561183457600080fd5b61183d83611805565b946020939093013593505050565b60008083601f84011261185d57600080fd5b50813567ffffffffffffffff81111561187557600080fd5b60208301915083602082850101111561188d57600080fd5b9250929050565b600080600080606085870312156118aa57600080fd5b6118b385611805565b93506118c160208601611805565b9250604085013567ffffffffffffffff8111156118dd57600080fd5b6118e98782880161184b565b95989497509550505050565b60008060006060848603121561190a57600080fd5b61191384611805565b925061192160208501611805565b9150604084013590509250925092565b60006020828403121561194357600080fd5b610b8182611805565b6000806020838503121561195f57600080fd5b823567ffffffffffffffff81111561197657600080fd5b6119828582860161184b565b90969095509350505050565b600080604083850312156119a157600080fd5b6119aa83611805565b9150602083013580151581146119bf57600080fd5b809150509250929050565b6000806000604084860312156119df57600080fd5b6119e884611805565b9250602084013567ffffffffffffffff811115611a0457600080fd5b611a108682870161184b565b9497909650939450505050565b634e487b7160e01b600052604160045260246000fd5b60008060008060808587031215611a4957600080fd5b611a5285611805565b9350611a6060208601611805565b925060408501359150606085013567ffffffffffffffff80821115611a8457600080fd5b818701915087601f830112611a9857600080fd5b813581811115611aaa57611aaa611a1d565b604051601f8201601f19908116603f01168101908382118183101715611ad257611ad2611a1d565b816040528281528a6020848701011115611aeb57600080fd5b82602086016020830137600060208483010152809550505050505092959194509250565b60008060408385031215611b2257600080fd5b611b2b83611805565b9150611b3960208401611805565b90509250929050565b600181811c90821680611b5657607f821691505b602082108103611b7657634e487b7160e01b600052602260045260246000fd5b50919050565b6020808252602d908201527f4552433732313a2063616c6c6572206973206e6f7420746f6b656e206f776e6560408201526c1c881bdc88185c1c1c9bdd9959609a1b606082015260800190565b81835281816020850137506000828201602090810191909152601f909101601f19169091010190565b60408152600080855481600182811c915080831680611c1257607f831692505b60208084108203611c3157634e487b7160e01b86526022600452602486fd5b6040880184905260608801828015611c505760018114611c6157611c8c565b60ff19871682528282019750611c8c565b60008d81526020902060005b87811015611c8657815484820152908601908401611c6d565b83019850505b5050878603818901525050505050611ca5818587611bc9565b9695505050505050565b60008351611cc1818460208801611781565b835190830190611cd5818360208801611781565b01949350505050565b60208082526025908201527f4552433732313a207472616e736665722066726f6d20696e636f72726563742060408201526437bbb732b960d91b606082015260800190565b60208082526032908201527f4552433732313a207472616e7366657220746f206e6f6e20455243373231526560408201527131b2b4bb32b91034b6b83632b6b2b73a32b960711b606082015260800190565b6001600160a01b0385811682528416602082015260408101839052608060608201819052600090611ca5908301846117ad565b600060208284031215611dba57600080fd5b8151610b818161174e56fea2646970667358221220602ed95d5a2d90eea899da625f91b498b0f8af05ca9b74c69decf9fb7edbee9f64736f6c634300080d0033",
  "linkReferences": {},
  "deployedLinkReferences": {}
}