{
  "_format": "hh-sol-artifact-1",
  "contractName": "Treasury",
  "sourceName": "contracts/finance/Treasury.sol",
  "abi": [
    {
      "inputs": [
        {
          "internalType": "contract ControlCenter",
          "name": "_controlCenter",
          "type": "address"
        }
      ],
      "stateMutability": "nonpayable",
      "type": "constructor"
    },
    {
      "inputs": [
        {
          "internalType": "contract IERC20",
          "name": "token",
          "type": "address"
        },
        {
          "internalType": "address",
          "name": "spender",
          "type": "address"
        },
        {
          "internalType": "uint256",
          "name": "amount",
          "type": "uint256"
        }
      ],
      "name": "approveERC20",
      "outputs": [],
      "stateMutability": "nonpayable",
      "type": "function"
    },
    {
      "inputs": [
        {
          "internalType": "contract IERC721",
          "name": "token",
          "type": "address"
        },
        {
          "internalType": "address",
          "name": "spender",
          "type": "address"
        },
        {
          "internalType": "uint256",
          "name": "tokenId",
          "type": "uint256"
        }
      ],
      "name": "approveERC721",
      "outputs": [],
      "stateMutability": "nonpayable",
      "type": "function"
    },
    {
      "inputs": [],
      "name": "controlCenter",
      "outputs": [
        {
          "internalType": "contract ControlCenter",
          "name": "",
          "type": "address"
        }
      ],
      "stateMutability": "view",
      "type": "function"
    },
    {
      "inputs": [
        {
          "internalType": "address",
          "name": "",
          "type": "address"
        },
        {
          "internalType": "address",
          "name": "",
          "type": "address"
        },
        {
          "internalType": "uint256",
          "name": "",
          "type": "uint256"
        },
        {
          "internalType": "bytes",
          "name": "",
          "type": "bytes"
        }
      ],
      "name": "onERC721Received",
      "outputs": [
        {
          "internalType": "bytes4",
          "name": "",
          "type": "bytes4"
        }
      ],
      "stateMutability": "pure",
      "type": "function"
    },
    {
      "inputs": [
        {
          "internalType": "contract IERC20",
          "name": "token",
          "type": "address"
        },
        {
          "internalType": "address",
          "name": "to",
          "type": "address"
        },
        {
          "internalType": "uint256",
          "name": "amount",
          "type": "uint256"
        }
      ],
      "name": "transferERC20",
      "outputs": [],
      "stateMutability": "nonpayable",
      "type": "function"
    },
    {
      "inputs": [
        {
          "internalType": "contract IERC721",
          "name": "token",
          "type": "address"
        },
        {
          "internalType": "address",
          "name": "from",
          "type": "address"
        },
        {
          "internalType": "address",
          "name": "to",
          "type": "address"
        },
        {
          "internalType": "uint256",
          "name": "tokenId",
          "type": "uint256"
        }
      ],
      "name": "transferERC721",
      "outputs": [],
      "stateMutability": "nonpayable",
      "type": "function"
    },
    {
      "inputs": [
        {
          "internalType": "address payable",
          "name": "to",
          "type": "address"
        },
        {
          "internalType": "uint256",
          "name": "amount",
          "type": "uint256"
        }
      ],
      "name": "transferNative",
      "outputs": [],
      "stateMutability": "nonpayable",
      "type": "function"
    },
    {
      "stateMutability": "payable",
      "type": "receive"
    }
  ],
  "bytecode": "0x60a060405234801561001057600080fd5b5060405161089d38038061089d83398101604081905261002f91610040565b6001600160a01b0316608052610070565b60006020828403121561005257600080fd5b81516001600160a01b038116811461006957600080fd5b9392505050565b6080516107ef6100ae6000396000818161017d015281816101c1015281816102af015281816103a601528181610468015261056901526107ef6000f3fe6080604052600436106100735760003560e01c80637d2e90c21161004e5780637d2e90c21461010b5780639db5dbe41461012b578063a8e5e4aa1461014b578063fee1f7751461016b57600080fd5b8062a7230a1461007f578063150b7a02146100a1578063789f93f6146100eb57600080fd5b3661007a57005b600080fd5b34801561008b57600080fd5b5061009f61009a366004610633565b6101b7565b005b3480156100ad57600080fd5b506100cd6100bc366004610674565b630a85bd0160e11b95945050505050565b6040516001600160e01b031990911681526020015b60405180910390f35b3480156100f757600080fd5b5061009f610106366004610713565b6102a5565b34801561011757600080fd5b5061009f610126366004610764565b61039c565b34801561013757600080fd5b5061009f610146366004610633565b61045e565b34801561015757600080fd5b5061009f610166366004610633565b61055f565b34801561017757600080fd5b5061019f7f000000000000000000000000000000000000000000000000000000000000000081565b6040516001600160a01b0390911681526020016100e2565b6001600160a01b037f000000000000000000000000000000000000000000000000000000000000000016635139caa7336040516001600160e01b031960e084901b1681526001600160a01b03909116600482015260240160006040518083038186803b15801561022657600080fd5b505afa15801561023a573d6000803e3d6000fd5b505060405163095ea7b360e01b81526001600160a01b038581166004830152602482018590528616925063095ea7b39150604401600060405180830381600087803b15801561028857600080fd5b505af115801561029c573d6000803e3d6000fd5b50505050505050565b6001600160a01b037f000000000000000000000000000000000000000000000000000000000000000016635139caa7336040516001600160e01b031960e084901b1681526001600160a01b03909116600482015260240160006040518083038186803b15801561031457600080fd5b505afa158015610328573d6000803e3d6000fd5b5050604051632142170760e11b81526001600160a01b038681166004830152858116602483015260448201859052871692506342842e0e9150606401600060405180830381600087803b15801561037e57600080fd5b505af1158015610392573d6000803e3d6000fd5b5050505050505050565b6001600160a01b037f000000000000000000000000000000000000000000000000000000000000000016635139caa7336040516001600160e01b031960e084901b1681526001600160a01b03909116600482015260240160006040518083038186803b15801561040b57600080fd5b505afa15801561041f573d6000803e3d6000fd5b50506040516001600160a01b038516925083156108fc02915083906000818181858888f19350505050158015610459573d6000803e3d6000fd5b505050565b6001600160a01b037f000000000000000000000000000000000000000000000000000000000000000016635139caa7336040516001600160e01b031960e084901b1681526001600160a01b03909116600482015260240160006040518083038186803b1580156104cd57600080fd5b505afa1580156104e1573d6000803e3d6000fd5b505060405163a9059cbb60e01b81526001600160a01b038581166004830152602482018590528616925063a9059cbb91506044015b6020604051808303816000875af1158015610535573d6000803e3d6000fd5b505050506040513d601f19601f820116820180604052508101906105599190610790565b50505050565b6001600160a01b037f000000000000000000000000000000000000000000000000000000000000000016635139caa7336040516001600160e01b031960e084901b1681526001600160a01b03909116600482015260240160006040518083038186803b1580156105ce57600080fd5b505afa1580156105e2573d6000803e3d6000fd5b505060405163095ea7b360e01b81526001600160a01b038581166004830152602482018590528616925063095ea7b39150604401610516565b6001600160a01b038116811461063057600080fd5b50565b60008060006060848603121561064857600080fd5b83356106538161061b565b925060208401356106638161061b565b929592945050506040919091013590565b60008060008060006080868803121561068c57600080fd5b85356106978161061b565b945060208601356106a78161061b565b935060408601359250606086013567ffffffffffffffff808211156106cb57600080fd5b818801915088601f8301126106df57600080fd5b8135818111156106ee57600080fd5b89602082850101111561070057600080fd5b9699959850939650602001949392505050565b6000806000806080858703121561072957600080fd5b84356107348161061b565b935060208501356107448161061b565b925060408501356107548161061b565b9396929550929360600135925050565b6000806040838503121561077757600080fd5b82356107828161061b565b946020939093013593505050565b6000602082840312156107a257600080fd5b815180151581146107b257600080fd5b939250505056fea2646970667358221220f4925a6a73becc5880937b1462511ef977cc4f5f5492836bac4fccb9bcc7c7a764736f6c634300080d0033",
  "linkReferences": {},
  "deployedLinkReferences": {}
}